:100000000C9459000C946B000C946B000C946B00D6
:100010000C946B000C946B000C946B000C946B00B4
:100020000C946B000C946B000C946B000C946B00A4
:100030000C946B000C946B000C946B000C946B0094
:100040000C946B000C946B000C946B000C946B0084
:100050000C946B000C946B000C946B000C946B0074
:100060000C946B000C946B000D0A68656C6C6F202F
:1000700072756E6E696E67320D0A000D0A68656CE6
:100080006C6F2072756E6E696E670D0A000D0A0046
:1000900025303278200025642E25303264002D0072
:1000A00030313233343536373839414243444546AE
:1000B000000011241FBECFEFD8E0DEBFCDBF11E09E
:1000C000A0E0B1E001C01D92A53BB107E1F70E949D
:1000D00048030C94C6060C940000459A9C01211517
:1000E000310549F0EFECF7E03197F1F700C000007F
:1000F00021503109F4CF45989C012115310549F073
:100100008FEC97E00197F1F700C000002150310912
:10011000F4CF089590910001E92FF0E0ED5FFE4FDC
:1001200080839F5F909300010895CF93DF9300D069
:1001300000D01F92CDB7DEB750E0860F911DBC01F5
:10014000CE0101960E94E403CE0101960E94C603EF
:100150000F900F900F900F900F90DF91CF91089517
:10016000589AE1ECF0E0208128602083A2ECB0E016
:100170002C912E602C932081206120839093C500C8
:100180008093C400089583E390E00C94B0009091B4
:10019000C00095FFFCCF8093C6000895CF93DF93F6
:1001A000EC018991882319F00E94C700FACFDF91F2
:1001B000CF910895CF93DF93EC01FE0184918823C2
:1001C00021F00E94C7002196F8CFDF91CF910895CA
:1001D000E5E3F1E001900020E9F731979F01255315
:1001E0003140FC013327B9016B5C7E4F94914E2F57
:1001F000481B50E0992331F0DB01A40FB51F9C93FD
:100200003196F4CF2B5C3E4FF901E40FF51F1082BD
:100210000895CF93DF93EC0197FF07C08EE990E03C
:100220000E94DA00D195C195D109CE0164E670E053
:100230000E9490039F938F937F936F9386E990E042
:100240009F938F9385E391E09F938F930E94F50393
:100250008DB79EB708960FB6F8949EBF0FBE8DBFA0
:1002600085E391E0DF91CF910C94CE00AF92BF92E5
:10027000DF92EF92FF920F931F93CF93DF931F9222
:10028000CDB7DEB7D82E5C0100E910E085E3E82E9B
:1002900081E0F82E8A2D8D198617C0F4F501819121
:1002A0005F011F928F931F930F93FF92EF926983C9
:1002B0000E94F50385E391E00E94CE000F900F901D
:1002C0000F900F900F900F906981E4CF8DE890E030
:1002D0000F90DF91CF911F910F91FF90EF90DF90E2
:1002E000BF90AF900C94DA009093020180930101CB
:1002F0000895CF93C82F8A3031F4E0910101F09135
:1003000002018DE00995E0910101F09102018C2F2D
:10031000CF910994CF93DF93009739F0EC01899145
:10032000882319F00E947901FACFDF91CF910895C7
:10033000EF92FF920F931F93CF93DF93EC017A011B
:100340000097E9F0680F791FC617D70719F400E086
:1003500010E00FC02196FE01319780818111F4CF0A
:10036000F6CF8881882349F021960E9479010F5F9A
:100370001F4F0E151F05A9F702C080E2F6CFDF91CF
:10038000CF911F910F91FF90EF900895CF93DF933E
:10039000009751F0FC018491EF012196882321F010
:1003A0000E947901FE01F7CFDF91CF9108958AE095
:1003B0000C9479018F70E82FF0E0E056FF4F8491A4
:1003C0000C947901CF93C82F82958F700E94DA0127
:1003D0008C2FCF910C94DA01CF93C82F892F0E94D4
:1003E000E2018C2FCF910C94E201CF92DF92EF9239
:1003F000FF926B017C01C7010E94EC01C601FF90D6
:10040000EF90DF90CF900C94EC013F924F925F926F
:100410006F927F928F929F92AF92BF92CF92DF9214
:10042000EF92FF920F931F93CF93DF93CDB7DEB779
:10043000A0970FB6F894DEBF0FBECDBF482EC62ED4
:10044000822E442351F017FF08C066277727CB017F
:100450006E197F09800B910B02C0C801B701992466
:100460009394411101C0912CDD24DA94DC0CD9184D
:1004700018A2552447FC5094652C752CA3019201B9
:100480000E94A403FB01EF70FF27E056FF4F649129
:100490006F8FB901CA015E012EE1A20EB11C3D2C85
:1004A0003A942FEF3216D1F061157105810591054F
:1004B00079F0A30192010E94A403FB01EF70FF27D2
:1004C000E056FF4F6491F5016083B901CA0102C093
:1004D000F5018082F1E0AF1AB108E2CFCE014F966C
:1004E0008D199109992069F0FC01319717FF02C01D
:1004F0002DE205C0EF28E02AE12A39F02BE2208323
:10050000CF017C011C2D180F02C020E2F8CF1E1570
:1005100031F0F70181917F010E947901F8CFA09617
:100520000FB6F894DEBF0FBECDBFDF91CF911F9104
:100530000F91FF90EF90DF90CF90BF90AF909F9082
:100540008F907F906F905F904F903F9008955F9253
:100550006F927F928F929F92AF92BF92CF92DF92D3
:10056000EF92FF920F931F93CF93DF931F92CDB71C
:10057000DEB7EC89FD893E0126E1620E711C3AE08E
:10058000A32EB12C3B89332381F08F010F5F1F4FC6
:100590008491853289F0882309F467C00E9479012B
:1005A000630178013601F701EDCF8081853259F082
:1005B0008F010F5F1F4FEFCF7F0182E0E80EF11C2C
:1005C000F801849105C07F0122E0E20EF11C8181D7
:1005D0008436A1F0883761F0833631F4F3018081ED
:1005E00093012E5F3F4F39010E9479016301DACFF9
:1005F00020E1822E912C00E010E105C09AE0892EC6
:10060000912C00E117E2630132E0C30ED11CF3012B
:10061000608071808436A1F477FE0FC0719461947C
:1006200071088DE20E94790108C0C801B5010E94DD
:100630007C038B016230710518F060167106A8F317
:10064000C301B8010E947C03582E862F99830E9413
:10065000DA01652C9981792EC801B4010E947C03CE
:100660008B016115710561F79DCF80E090E00F90DF
:10067000DF91CF911F910F91FF90EF90DF90CF907E
:10068000BF90AF909F908F907F906F905F900895F4
:1006900080E287B984E690E00E946D0084E690E0F5
:1006A0000E946D0084E690E00E946D0084E690E078
:1006B0000E946D0084E690E00E946D000E94C300DD
:1006C00087EC90E00E9474018BE790E09F938F93FA
:1006D00081E08F930E94A70278940F900F900F9063
:1006E000C8E6D0E011E0DF93CF931F930E94A702EA
:1006F0000F900F900F90F7CFAA1BBB1B51E107C0C3
:10070000AA1FBB1FA617B70710F0A61BB70B881FA1
:10071000991F5A95A9F780959095BC01CD01089530
:1007200097FB072E16F4009407D077FD09D00E949E
:100730007C0307FC05D03EF4909581959F4F08956A
:10074000709561957F4F0895A1E21A2EAA1BBB1BDD
:10075000FD010DC0AA1FBB1FEE1FFF1FA217B3078D
:10076000E407F50720F0A21BB30BE40BF50B661FA3
:10077000771F881F991F1A9469F760957095809567
:1007800090959B01AC01BD01CF010895FC01882724
:100790009927E89421912032E9F3293010F02E3086
:1007A000C8F32B3241F02D3239F4689404C00E9412
:1007B000ED03820F911D219120532A30C0F31EF4C6
:1007C000909581959F4F0895FB01DC0102C0019037
:1007D0000D9241505040D8F708957AE0979F902DA0
:1007E000879F802D910D11240895AEE0B0E0EBEFCE
:1007F000F3E00C949D060D891E898EE08C831A838C
:1008000009838FEF9FE79E838D83AE01475E5F4F25
:100810006F89788DCE0101960E941704EF81F885CB
:10082000E00FF11F10822E96E4E00C94B906ACE0C4
:10083000B0E0EDE1F4E00C948F067C016B018A01DD
:10084000FC0117821682838181FFBDC1CE01019612
:100850004C01F7019381F60193FD859193FF8191FE
:100860006F01882309F4ABC1853239F493FD85917A
:1008700093FF81916F01853229F4B70190E00E94C6
:10088000FF05E7CF512C312C20E02032A0F48B3231
:1008900069F030F4803259F0833269F420612CC061
:1008A0008D3239F0803339F4216026C02260246013
:1008B00023C0286021C027FD27C030ED380F3A3013
:1008C00078F426FF06C0FAE05F9E300D1124532E07
:1008D00013C08AE0389E300D1124332E20620CC0E4
:1008E0008E3221F426FD6BC1206406C08C3611F4D3
:1008F000206802C0883641F4F60193FD859193FF8C
:1009000081916F018111C1CF982F9F7D95549330B4
:1009100028F40C5F1F4FFFE3F9830DC0833631F0DD
:10092000833771F0833509F05BC022C0F801808104
:1009300089830E5F1F4F44244394512C540115C0EA
:100940003801F2E06F0E711CF801A080B18026FF23
:1009500003C0652D70E002C06FEF7FEFC5012C87EB
:100960000E94F4052C0183012C852F77222E17C0BD
:100970003801F2E06F0E711CF801A080B18026FFF3
:1009800003C0652D70E002C06FEF7FEFC5012C87BB
:100990000E94E9052C012C852068222E830123FC6E
:1009A0001BC0832D90E048165906B0F4B70180E2D1
:1009B00090E00E94FF053A94F4CFF50127FC859161
:1009C00027FE81915F01B70190E00E94FF05311081
:1009D0003A94F1E04F1A51084114510471F7E5C0FF
:1009E000843611F0893639F5F80127FF07C0608198
:1009F0007181828193810C5F1F4F08C0608171817A
:100A0000882777FD8095982F0E5F1F4F2F76B22E87
:100A100097FF09C090958095709561957F4F8F4F96
:100A20009F4F2068B22E2AE030E0A4010E943106D8
:100A3000A82EA81844C0853729F42F7EB22E2AE0AC
:100A400030E025C0F22FF97FBF2E8F36C1F018F4A9
:100A5000883579F0B4C0803719F0883721F0AFC0FD
:100A60002F2F2061B22EB4FE0DC08B2D8460B82EC6
:100A700009C024FF0AC09F2F9660B92E06C028E047
:100A800030E005C020E130E002C020E132E0F801B2
:100A9000B7FE07C060817181828193810C5F1F4F17
:100AA00006C06081718180E090E00E5F1F4FA4015D
:100AB0000E943106A82EA818FB2DFF77BF2EB6FE88
:100AC0000BC02B2D2E7FA51450F4B4FE0AC0B2FC2F
:100AD00008C02B2D2E7E05C07A2C2B2D03C07A2C1E
:100AE00001C0752C24FF0DC0FE01EA0DF11D8081AF
:100AF000803311F4297E09C022FF06C073947394D9
:100B000004C0822F867809F0739423FD13C020FF60
:100B100006C05A2C731418F4530C5718732C731402
:100B200068F4B70180E290E02C870E94FF0573947F
:100B30002C85F5CF731410F4371801C0312C24FF25
:100B400012C0B70180E390E02C870E94FF052C853E
:100B500022FF17C021FF03C088E590E002C088E7AC
:100B600090E0B7010CC0822F867859F021FD02C0B9
:100B700080E201C08BE227FD8DE2B70190E00E9488
:100B8000FF05A51438F4B70180E390E00E94FF054B
:100B90005A94F7CFAA94F401EA0DF11D8081B701B0
:100BA00090E00E94FF05A110F5CF332009F451CE4B
:100BB000B70180E290E00E94FF053A94F6CFF7017A
:100BC0008681978102C08FEF9FEF2C96E2E10C9413
:100BD000AB06FC010590615070400110D8F780957C
:100BE00090958E0F9F1F0895FC01615070400190F9
:100BF0000110D8F7809590958E0F9F1F08950F9341
:100C00001F93CF93DF93182F092FEB018B8181FD69
:100C100003C08FEF9FEF20C082FF10C04E815F8125
:100C20002C813D81421753077CF4E881F9819F01B3
:100C30002F5F3F4F39832883108306C0E885F985ED
:100C4000812F0995892B29F72E813F812F5F3F4FF7
:100C50003F832E83812F902FDF91CF911F910F9192
:100C60000895FA01AA27283051F1203181F1E89442
:100C70006F936E7F6E5F7F4F8F4F9F4FAF4FB1E08F
:100C80003ED0B4E03CD0670F781F891F9A1FA11D8A
:100C9000680F791F8A1F911DA11D6A0F711D811D8B
:100CA000911DA11D20D009F468943F912AE0269F50
:100CB00011243019305D3193DEF6CF010895462FAF
:100CC0004770405D4193B3E00FD0C9F7F6CF462F90
:100CD0004F70405D4A3318F0495D31FD40524193F9
:100CE00002D0A9F7EACFB4E0A695979587957795B6
:100CF0006795BA95C9F700976105710508959B013D
:100D0000AC010A2E06945795479537952795BA95C5
:100D1000C9F7620F731F841F951FA01D08952F929E
:100D20003F924F925F926F927F928F929F92AF927B
:100D3000BF92CF92DF92EF92FF920F931F93CF93C8
:100D4000DF93CDB7DEB7CA1BDB0B0FB6F894DEBF5F
:100D50000FBECDBF09942A88398848885F846E8485
:100D60007D848C849B84AA84B984C884DF80EE80CF
:100D7000FD800C811B81AA81B981CE0FD11D0FB6D8
:100D8000F894DEBF0FBECDBFED010895F894FFCFFC
:00000001FF
