:100000000C94AF010C94CC010C94CC010C94CC0159
:100010000C94CC010C94CC010C94CC010C94CC012C
:100020000C94CC010C9443030C94CC010C94CC01A3
:100030000C94CC010C94CC010C94CC010C94CC010C
:100040000C94CC010C94CC010C94CC010C94CC01FC
:100050000C94CC010C94CC010C94CC010C94CC01EC
:100060000C94CC010C94CC015265706561743A25F6
:10007000753B4175746F526576657273653A257587
:100080003B0042696C642042656C657563687475F9
:100090006E67205247422044696D6D65720D0A00FB
:1000A0000D0A000D0A2A2A2A20436F6C6F727320F2
:1000B000616674657220696E697469616C697361E7
:1000C00074696F6E202A2A2A0D0A000D0A2A2A2A2C
:1000D00020496E697469616C20636F6C6F72732064
:1000E0002A2A2A0D0A000D0A0020202074696D6555
:1000F00020253032640D0A00524742202533642CFB
:100100002533642C253364002D2D2020200025303C
:10011000326420202000506F7320253032643A2052
:10012000636F6C6F7220007266697273743A202577
:10013000642C20726C6173743A2025642C206C6CE2
:100140006173743A2025640D0A0043757272656EFE
:100150007420636F6C6F723A2052474220253364DB
:100160002C2533642C2533640D0A00416E696D61C2
:1001700074696F6E207265706561743A2025642C15
:10018000206175746F726576657273653A202573A8
:100190002C20006C6C6173743A2025640D0A007287
:1001A0006C6173743A2025640D0A0072666972737B
:1001B000743A2025640D0A006B65795F6964783AAA
:1001C0002025640D0A00436F7079206677642066ED
:1001D000726F6D20256420746F20256420636F7515
:1001E0006E742025640D0A00436F70792072657665
:1001F0002066726F6D20256420746F202564206353
:100200006F756E742025640D0A0053657420636F4A
:100210006C6F72206E722E2025640D0A002D2D2D1C
:1002200020476F20746F206E65787420636F6C6F49
:10023000722C206E657720636F6C5F706F733A204D
:1002400025642E206E657720737465705F6C656E13
:100250003A2025640D0A002D2D20456E64206F661E
:1002600020616E696D6174696F6E2E205365742014
:10027000666978656420636F6C6F722025640D0A6F
:10028000002D2D204D6F7265206379636C6573209E
:10029000746F20676F2E204E6577207265706561E0
:1002A00074203D2025642E20526573657420636F91
:1002B0006C5F706F7320746F2025642E0D0A002D03
:1002C0002D20416E696D207374657020256420288F
:1002D000636F6C6F7220706F73202564202D3E2039
:1002E0002564292066696E69736865642E0D0A00AD
:1002F00050574D2025642C25642C25640D0A00637D
:100300006F6C5F706F732025642C20737465705F51
:100310006C656E2025640D0A00496E6465782025A1
:100320006420746F20636F6C6F72202D3E202564F3
:100330002C25642C25640D0A000D0A002530327826
:10034000200025642E25303264002D0030313233F8
:10035000343536373839414243444546000011248C
:100360001FBECFEFD8E0DEBFCDBF13E0A0E0B1E00D
:10037000E8E4F1E202C005900D92A834B107D9F784
:1003800014E0A8E4B3E001C01D92AF35B107E1F776
:100390000E94040B0C94A2100C940000569A559ADB
:1003A000219A81EA84BD81E88093800083E085BD45
:1003B00080938100089587E08093B10081E080936D
:1003C00070000895CF92DF92EF92FF92CF93DF9368
:1003D000E62FD72FC82FA091DE032091010130E036
:1003E000B0E00E94240C9B01AC01F0E0EE0FFF1F77
:1003F000EE5FFE4FA081B1810E94330C20E1C22E3E
:1004000027E2D22EE12CF12CA70196010E94660C66
:1004100027BDA091DE032091010130E0B0E00E94F1
:10042000240C9B01AC01ED2FF0E0EE0FFF1FEE5FFF
:10043000FE4FA081B1810E94330CA70196010E945A
:10044000660C28BDA091DE032091010130E0B0E0F0
:100450000E94240C9B01AC01EC2FF0E0EE0FFF1F7B
:10046000EE5FFE4FA081B1810E94330CA70196017F
:100470000E94660C3093890020938800DF91CF9111
:10048000FF90EF90DF90CF9008951F93CF93DF936D
:1004900000D0CDB7DEB7682F607362956F7015E539
:1004A000619F602D1124782F7C7076957695719FD1
:1004B000702D1124982F9370919F102D11241F924D
:1004C0001F931F927F931F926F931F928F9389E1C7
:1004D00093E09F938F9381E08F9369837A830E9447
:1004E00048090FB6F894DEBF0FBECDBF69817A818F
:1004F000812F0F900F90DF91CF911F9108953F9220
:100500004F925F926F927F928F929F92AF92BF9223
:10051000CF92DF92EF92FF920F931F93CF93DF93CF
:1005200000914C0310914D03909049030115110562
:1005300009F466C0C92DD0E07E01EE0CFF1CC70196
:100540008C0F9D1F9C0122583C4F7901F901A0811D
:10055000C0904A03D0904B035801AC18BD08280145
:10056000612C712C2196CE01880F991FC80FD91FBD
:10057000C258DC4F88809501B0E00E94240CA30192
:1005800092010E94660C322E9601A82DB0E00E94C6
:10059000240CA30192010E94660C230D2093DB031F
:1005A000F701A18139809501B0E00E94240CA301DC
:1005B00092010E94660C822E9601A32DB0E00E944B
:1005C000240CA30192010E94660C280D2093DC03E9
:1005D000F701A281DA819501B0E00E94240CA30109
:1005E00092010E94660CC22F9601AD2FB0E00E94CE
:1005F000240CA30192010E94660C2C0F2093DD03B2
:100600001F930F931F930F931F929F928FEF92E070
:100610009F938F93C1E0CF930E9448098091DD039F
:100620001F928F938091DC031F928F938091DB0345
:100630001F928F9380EF92E09F938F93CF930E94AE
:1006400048092DB73EB72E5E3F4F0FB6F8943EBF18
:100650000FBE2DBF6091DB037091DC038091DD0341
:10066000DF91CF911F910F91FF90EF90DF90CF908E
:10067000BF90AF909F908F907F906F905F904F90C2
:100680003F900C94E2011F920F920FB60F9211242B
:100690002F933F934F935F936F937F938F939F938A
:1006A000AF93BF93EF93FF9320914C0330914D0391
:1006B0002115310509F4C1C080914A0390914B0383
:1006C0008217930730F4019690934B0380934A036B
:1006D000B2C020914903822F90E001969F938F939F
:1006E0001F922F931F922F938FEB92E09F938F93E4
:1006F00081E08F930E944809209170038DB79EB7C7
:1007000009960FB6F8949EBF0FBE8DBF8091490326
:100710002130E1F190915003891362C08F5F809383
:100720004903223018F02150209370038091720306
:100730001F928F93809170031F928F9381E892E0B4
:100740009F938F9381E08F930E944809E0917203F9
:10075000E093490310924B0310924A03F0E0EF5AE2
:10076000FC4FE081F0E0EE0FFF1FEE5FFC4F808159
:10077000918190934D0380934C038DB79EB707965C
:100780000FB6F8949EBF0FBE8DBF55C090917303F6
:10079000891326C090E001969F938F9387E592E09E
:1007A0009F938F932F930E9448098091490390E073
:1007B0000196FC01EE0FFF1F8E0F9F1FFC01E258F8
:1007C000FC4F6081718182810E94E20110924D0391
:1007D00010924C030F900F900F900F900F902DC020
:1007E0008F5F8093490310924B0310924A03E82FC6
:1007F000F0E0EF5AFC4FE081F0E0EE0FFF1FEE5FFC
:10080000FC4F9081218190934C0320934D032F93B3
:100810009F931F928F938DE192E09F938F9381E03E
:100820008F930E9448098DB79EB707960FB6F8942C
:100830009EBF0FBE8DBF0E947F02FF91EF91BF91BF
:10084000AF919F918F917F916F915F914F913F9168
:100850002F910F900FBE0F901F901895CF93C82F18
:10086000F89410924D0310924C030E94450260933D
:10087000DB037093DC038093DD03C0937403609308
:100880007E0370937F03809380031F92CF938AE04F
:1008900092E09F938F9381E08F930E9448090E947A
:1008A0007F0278940F900F900F900F900F90CF9140
:1008B0000895CF92DF92EF92FF920F931F93CF9301
:1008C000DF93042F10E0E62EF12CC82FD0E01F920A
:1008D0004F931F926F931F928F9388EE91E09F9397
:1008E0008F9381E08F930E9448098DB79EB7099638
:1008F0000FB6F8949EBF0FBE8DBF60E09701200F2A
:10090000311F21503109862F992787FD9095801737
:1009100091071CF5A901481B590B8C0F9D1FFA016B
:10092000EE0FFF1FE40FF51FE258FC4FDC01AA0F8A
:10093000BB1FA80FB91FA258BC4FCD90DD90EC9003
:10094000C082D182E282FC01E05BFC4F8081FA012F
:10095000EF5AFC4F80836F5FD6CFDF91CF911F910D
:100960000F91FF90EF90DF90CF900895AF92BF92DC
:10097000CF92DF92EF920F931F93CF93DF931F924B
:10098000CDB7DEB7A62EB12C082F10E01F924F93E3
:100990001F926F931F928F9386EC91E09F938F939A
:1009A00081E08F9349830E944809498141500FB6E5
:1009B000F894DEBF0FBECDBF47FD27C0842F992717
:1009C00087FD9095F501E80FF91F800F911F9F019A
:1009D000220F331F2E0F3F1F22583C4FDC01AA0F5E
:1009E000BB1FA80FB91FA258BC4FCD90DD90EC9053
:1009F000D901CD92DD92EC92DC01AF5ABC4F8C91C3
:100A0000EF5AFC4F80834150D7CF0F90DF91CF91A9
:100A10001F910F91EF90DF90CF90BF90AF9008950E
:100A2000EF92FF920F931F93CF93DF9324E7E22E71
:100A300023E0F22EC1E0D0E08E01000F111F0C0F59
:100A40001D1F02581C4FF70181917F010E94450232
:100A5000F8016083718382832196CB30D10561F7E1
:100A60008091DB039091DC03A091DD0380937E03F2
:100A700090937F03A0938003E1E5F3E0C0E08191D0
:100A8000882319F0CF5FCA30D1F72091710380918C
:100A90007003222329F080FF03C09FEF9C0F01C049
:100AA00092E090937203222309F44EC0813009F43E
:100AB0005FC0FF24FA94FC0EDC2FDD0F811107C00C
:100AC0004F2D6C2F82E00E945904D35055C00C2F3B
:100AD00010E080FD1FC0F801E05BFC4FE0806DEF8F
:100AE0006D0F41E08C2F0E94B6044EEF4C0F6F2D1E
:100AF00082E00E94590402501109F801EE0FFF1F15
:100B0000EF5AFC4FE082D550D0935003000F009372
:100B1000730316C002501109602F660F4F2D82E03B
:100B20000E94B6044DEF4C0F6F2D83E00E945904D4
:100B3000DC0F88EF8D0F80935003D750D093730351
:100B400080917003869533C0811112C041E061E04D
:100B50006C0F82E00E94B604C0937303C0935003ED
:100B600080915203EC2FF0E0EF5AFC4F808321C0BC
:100B7000DFEFDC0F813029F4D0937303D09350035F
:100B800018C04D2F6C2F82E00E94B6048091520352
:100B9000EC2FF0E0E05BFC4F8083D09350038C2F70
:100BA000880F8350809373038091700381508093EA
:100BB00070031F92CF9388EB91E09F938F93C1E0D6
:100BC000CF930E944809809172031F928F938BEA02
:100BD00091E09F938F93CF930E9448098091500397
:100BE0001F928F938FE991E09F938F93CF930E94F1
:100BF0004809809173031F928F9383E991E09F933B
:100C00008F93CF930E9448098DB79EB744960FB635
:100C1000F8949EBF0FBE8DBFDF91CF911F910F91B2
:100C2000FF90EF900895E1E5F3E08FE18E0F1192D0
:100C30008E13FDCF08953F924F925F926F927F92F5
:100C40008F929F92AF92BF92CF92DF92EF92FF92DC
:100C50000F931F93CF93DF9380917103811103C092
:100C600083E493E002C080E493E09F938F938091AC
:100C700070031F928F938BE691E09F938F93C1E057
:100C8000CF930E9448098091DD031F928F9380913A
:100C9000DC031F928F938091DB031F928F938AE472
:100CA00091E09F938F93CF930E94480980917303A3
:100CB0001F928F93809150031F928F9380917203A4
:100CC0001F928F9387E291E09F938F93CF930E941F
:100CD000480900E813E081E5E82E83E0F82E8DB79F
:100CE0009EB749960FB6F8949EBF0FBE8DBFC0E069
:100CF000D0E096E1C92E91E0D92E3324339428E038
:100D0000A22E21E0B22E3EE0832E31E0932E48EF5A
:100D1000642E40E0742E59EE452E50E0552EDF93A0
:100D2000CF93DF92CF923F920E9448090F900F908D
:100D30000F900F900F90CA30D10588F4FE01EC5847
:100D4000FC4F80811F928F939F928F923F920E94BF
:100D500048090F900F900F900F900F9008C0BF920E
:100D6000AF923F920E9448090F900F900F90F801A8
:100D700080811F928F93319780811F928F9331973B
:100D800080811F928F937F926F923F920E944809B9
:100D9000F70181917F011F928F935F924F923F9253
:100DA0000E94480921960D5F1F4F8DB79EB70E9682
:100DB0000FB6F8949EBF0FBE8DBFCF31D10509F09D
:100DC000AECF86EE90E09F938F9381E08F930E9449
:100DD00048090F900F900F90DF91CF911F910F91C5
:100DE000FF90EF90DF90CF90BF90AF909F908F904B
:100DF0007F906F905F904F903F9008951092700396
:100E0000C1E0C093710310924B0310924A031092F9
:100E100049038AE0809351031092740380E1809328
:100E2000520390E390937503809353039CE0909357
:100E300076038093540383E0809377038FE080935D
:100E4000550383E38093780389E080935603C0932E
:100E500079038BEC90E09F938F93CF930E94480986
:100E60000E941B060E94100583EA90E09F938F93D7
:100E7000CF930E9448090E941B06E0915103F0E0C5
:100E8000EE0FFF1FEE5FFC4F8081918190934D0329
:100E900080934C030F900F900F900F900F900F9036
:100EA000FFCF589AE1ECF0E0208128602083A2EC8B
:100EB000B0E02C912E602C932081206120839093B0
:100EC000C5008093C400089583E390E00C9451071B
:100ED0009091C00095FFFCCF8093C6000895CF93FA
:100EE000DF93EC018991882319F00E946807FACFFB
:100EF000DF91CF910895CF93DF93EC01FE018491B0
:100F0000882321F00E9468072196F8CFDF91CF91C6
:100F10000895EFEDF3E001900020E9F731979F018C
:100F20002F5D3340FC013327B90161527C4F94910E
:100F30004E2F481B50E0992331F0DB01A40FB51F61
:100F40009C933196F4CF21523C4FF901E40FF51FE9
:100F500010820895CF93DF93EC0197FF07C08AE4D6
:100F600093E00E947B07D195C195D109CE0164E63B
:100F700070E00E94520C9F938F937F936F9382E453
:100F800093E09F938F938FED93E09F938F930E94B5
:100F9000D10D8DB79EB708960FB6F8949EBF0FBEC1
:100FA0008DBF8FED93E0DF91CF910C946F07AF92DF
:100FB000BF92DF92EF92FF920F931F93CF93DF9335
:100FC0001F92CDB7DEB7D82E5C010CE313E08FED96
:100FD000E82E83E0F82E8A2D8D198617C0F4F501CE
:100FE00081915F011F928F931F930F93FF92EF9256
:100FF00069830E94D10D8FED93E00E946F070F90DF
:101000000F900F900F900F900F906981E4CF89E3BC
:1010100093E00F90DF91CF911F910F91FF90EF9090
:10102000DF90BF90AF900C947B0790934F03809319
:101030004E030895CF93C82F8A3031F4E0914E03C8
:10104000F0914F038DE00995E0914E03F0914F032D
:101050008C2FCF910994CF93DF93009739F0EC0157
:101060008991882319F00E941A08FACFDF91CF9155
:101070000895EF92FF920F931F93CF93DF93EC01AC
:101080007A010097E9F0680F791FC617D70719F49E
:1010900000E010E00FC02196FE01319780818111A0
:1010A000F4CFF6CF8881882349F021960E941A0850
:1010B0000F5F1F4F0E151F05A9F702C080E2F6CF84
:1010C000DF91CF911F910F91FF90EF900895CF93F3
:1010D000DF93009751F0FC018491EF012196882362
:1010E00021F00E941A08FE01F7CFDF91CF910895F9
:1010F0008AE00C941A088F70E82FF0E0E45BFC4F54
:1011000084910C941A08CF93C82F82958F700E94F7
:101110007B088C2FCF910C947B08CF93C82F892FFD
:101120000E9483088C2FCF910C948308CF92DF927A
:10113000EF92FF926B017C01C7010E948D08C601EE
:10114000FF90EF90DF90CF900C948D083F924F92DC
:101150005F926F927F928F929F92AF92BF92CF9247
:10116000DF92EF92FF920F931F93CF93DF93CDB750
:10117000DEB7A0970FB6F894DEBF0FBECDBF482EE6
:10118000C62E822E442351F017FF08C0662777270A
:10119000CB016E197F09800B910B02C0C801B7010A
:1011A00099249394411101C0912CDD24DA94DC0C34
:1011B000D91818A2552447FC5094652C752CA3010E
:1011C00092010E94660CFB01EF70FF27E45BFC4F6D
:1011D00064916F8FB901CA015E012EE1A20EB11CAC
:1011E0003D2C3A942FEF3216D1F06115710581052F
:1011F000910579F0A30192010E94660CFB01EF704A
:10120000FF27E45BFC4F6491F5016083B901CA01DB
:1012100002C0F5018082F1E0AF1AB108E2CFCE0141
:101220004F968D199109992069F0FC01319717FFAC
:1012300002C02DE205C0EF28E02AE12A39F02BE2B6
:101240002083CF017C011C2D180F02C020E2F8CFB3
:101250001E1531F0F70181917F010E941A08F8CF25
:10126000A0960FB6F894DEBF0FBECDBFDF91CF9131
:101270001F910F91FF90EF90DF90CF90BF90AF90B4
:101280009F908F907F906F905F904F903F900895C8
:101290005F926F927F928F929F92AF92BF92CF9206
:1012A000DF92EF92FF920F931F93CF93DF931F92E2
:1012B000CDB7DEB7EC89FD893E0126E1620E711CD7
:1012C0003AE0A32EB12C3B89332381F08F010F5FCD
:1012D0001F4F8491853289F0882309F467C00E94EA
:1012E0001A08630178013601F701EDCF808185325C
:1012F00059F08F010F5F1F4FEFCF7F0182E0E80EA3
:10130000F11CF801849105C07F0122E0E20EF11C7E
:1013100081818436A1F0883761F0833631F4F3019E
:10132000808193012E5F3F4F39010E941A086301AB
:10133000DACF20E1822E912C00E010E105C09AE086
:10134000892E912C00E117E2630132E0C30ED11C1B
:10135000F301608071808436A1F477FE0FC0719430
:10136000619471088DE20E941A0808C0C801B50195
:101370000E943E0C8B016230710518F060167106F8
:10138000A8F3C301B8010E943E0C582E862F998302
:101390000E947B08652C9981792EC801B4010E94B6
:1013A0003E0C8B016115710561F79DCF80E090E0E7
:1013B0000F90DF91CF911F910F91FF90EF90DF90F1
:1013C000CF90BF90AF909F908F907F906F905F90E5
:1013D0000895579A08958F929F92AF92BF92CF929D
:1013E000DF92EF92FF925F9A682F70E080E090E0CA
:1013F0000E94B80C4B015C0120E030E04AEF54E45D
:101400000E94460D6B017C0120E030E040E85FE384
:101410000E94880C87FD24C020E03FEF4FE757E48F
:10142000C701B6010E94420D1816ACF420E030E06E
:1014300040E251E4C501B4010E94460D0E948C0CAB
:1014400028EC30E06115710581F0C9010197F1F7D1
:1014500061507109F7CFC701B6010E948C0C02C020
:1014600061E070E0CB010197F1F75F98FF90EF909A
:10147000DF90CF90BF90AF909F908F90089588237A
:1014800011F05F9A08955F9808952F923F924F92BE
:101490005F926F927F928F929F92AF92BF92CF9204
:1014A000DF92EF92FF920F931F93CF93DF9300D0C1
:1014B00000D0CDB7DEB7042F10E09C0140E050E033
:1014C00029833A834B835C8388EC282E312C6B0173
:1014D000E12CF12C101709F480C05F9A69817A81A0
:1014E0008B819C810E94B80C2B013C0120E030E0F4
:1014F0004AEF54E40E94460D4B015C0120E030E0CD
:1015000040E85FE30E94880C87FD22C020E03FEFA7
:101510004FE757E4C501B4010E94420D18169CF430
:1015200020E030E040E251E4C301B2010E94460DE8
:101530000E948C0C6115710581F0C1010197F1F7D2
:1015400061507109F7CFC501B4010E948C0C02C033
:1015500061E070E0CB010197F1F75F98C701B60138
:101560000E94B80C2B013C0120E030E04AEF54E42B
:101570000E94460D4B015C0120E030E040E85FE353
:101580000E94880C87FD22C020E03FEF4FE757E420
:10159000C501B4010E94420D18169CF420E030E011
:1015A00040E251E4C301B2010E94460D0E948C0C3E
:1015B0006115710581F0C1010197F1F76150710961
:1015C000F7CFC501B4010E948C0C02C061E070E04D
:1015D000CB010197F1F71F5F7DCF0F900F900F9018
:1015E0000F90DF91CF911F910F91FF90EF90DF90BF
:1015F000CF90BF90AF909F908F907F906F905F90B3
:101600004F903F902F9008952FEF89E698E1215059
:1016100080409040E1F700C000000E94640788E627
:1016200097E00E9415080E94E90943E064E670E033
:1016300084E690E00E94450A789480EA90E09F93C7
:101640008F93C1E0CF930E94480982E890E09F9376
:101650008F93CF930E9448090E94CE018FE30E948E
:101660002E040E94DB010E94130680E30E944502C3
:101670006093DB037093DC038093DD030E94E2013F
:1016800081E00E943F0AEFEFF4E32CE0E150F040EC
:101690002040E1F700C000008CE00E94450260930A
:1016A000DB037093DC038093DD030E94E20180E0A2
:1016B0000E943F0A8FEF94E3ECE081509040E040BD
:1016C000E1F700C0000083E00E9445026093DB0365
:1016D0007093DC038093DD030E94E20181E00E94AD
:1016E0003F0AFFEF24E38CE0F15020408040E1F717
:1016F00000C0000080E00E9445026093DB0370930D
:10170000DC038093DD030E94E20180E00E943F0A37
:101710009FEFE4E3FCE09150E040F040E1F700C0CF
:10172000000041E060E070E084EF91E00E94450A33
:10173000F8948AE08093DE0310927003C0937103E3
:1017400010924B0310924A03109249038091DB03DD
:101750009091DC03A091DD0380937E0390937F033F
:10176000A09380031F92CF931F921F9288E690E070
:101770009F938F93CF930E9448098AE090E09093C3
:101780004D0380934C03809100018093510310928C
:1017900074038093520397E09093750380935303EF
:1017A0009EE0909376038093540395E190937703A2
:1017B000809355039CE1909378038093560393E2C2
:1017C00090937903809357039AE290937A038093DE
:1017D000580391E390937B038093590398E390938C
:1017E0007C0380935A038FE380937D030E9410054E
:1017F000E0915103F0E0EE0FFF1FEE5FFC4F8081A0
:10180000918190934D0380934C030E947F027894C2
:101810008DB79EB70D960FB6F8949EBF0FBE8DBFC5
:1018200080E0823349F441E060E070E088EC90E0D1
:101830000E94450A80E006C0EFE3FCE93197F1F72A
:1018400000C000008F5FEDCFA29FB001B39FC00129
:10185000A39F700D811D1124911DB29F700D811DDC
:101860001124911D08950E94240CA59F900DB49FF2
:10187000900DA49F800D911D11240895AA1BBB1BE0
:1018800051E107C0AA1FBB1FA617B70710F0A61B80
:10189000B70B881F991F5A95A9F780959095BC01A1
:1018A000CD01089597FB072E16F4009407D077FD1D
:1018B00009D00E943E0C07FC05D03EF4909581951E
:1018C0009F4F0895709561957F4F0895A1E21A2E5C
:1018D000AA1BBB1BFD010DC0AA1FBB1FEE1FFF1FD4
:1018E000A217B307E407F50720F0A21BB30BE40B24
:1018F000F50B661F771F881F991F1A9469F760956B
:101900007095809590959B01AC01BD01CF01089524
:101910006CD008F481E0089594D088F09F5790F03F
:10192000B92F9927B751A0F0D1F0660F771F881F04
:10193000991F1AF0BA95C9F712C0B13081F09BD047
:10194000B1E0089598C0672F782F8827B85F39F0E5
:10195000B93FCCF3869577956795B395D9F73EF463
:1019600090958095709561957F4F8F4F9F4F08950B
:10197000E89409C097FB3EF4909580957095619529
:101980007F4F8F4F9F4F9923A9F0F92F96E9BB27DF
:101990009395F695879577956795B795F111F8CF5B
:1019A000FAF4BB0F11F460FF1BC06F5F7F4F8F4FC6
:1019B0009F4F16C0882311F096E911C0772321F0BC
:1019C0009EE8872F762F05C0662371F096E8862F54
:1019D00070E060E02AF09A95660F771F881FDAF7AB
:1019E000880F9695879597F90895990F0008550FD8
:1019F000AA0BE0E8FEEF16161706E807F907C0F095
:101A000012161306E407F50798F0621B730B840B9C
:101A1000950B39F40A2661F0232B242B252B21F476
:101A200008950A2609F4A140A6958FEF811D811D16
:101A3000089557FD9058440F551F59F05F3F71F0BE
:101A40004795880F97FB991F61F09F3F79F0879525
:101A50000895121613061406551FF2CF4695F1DFAE
:101A600008C0161617061806991FF1CF869571053E
:101A7000610508940895E894BB2766277727CB0172
:101A800097F90895B2DF08F48FEF08950BD078C06E
:101A900069D028F06ED018F0952309F05AC05FC0C5
:101AA0001124EACFC6DFA0F3959FD1F3950F50E044
:101AB000551F629FF001729FBB27F00DB11D639F00
:101AC000AA27F00DB11DAA1F649F6627B00DA11DA6
:101AD000661F829F2227B00DA11D621F739FB00D4C
:101AE000A11D621F839FA00D611D221F749F3327BC
:101AF000A00D611D231F849F600D211D822F762F55
:101B00006A2F11249F5750408AF0E1F088234AF051
:101B1000EE0FFF1FBB1F661F771F881F915050409D
:101B2000A9F79E3F510570F014C0A6CF5F3FECF3BC
:101B3000983EDCF3869577956795B795F795E79589
:101B40009F5FC1F7FE2B880F911D9695879597F99A
:101B5000089597F99F6780E870E060E008959FEF2F
:101B600080EC089500240A94161617061806090634
:101B7000089500240A941216130614060506089503
:101B8000092E0394000C11F4882352F0BB0F40F48B
:101B9000BF2B11F460FF04C06F5F7F4F8F4F9F4FCB
:101BA0000895AEE0B0E0E7EDFDE00C9479100D890A
:101BB0001E898EE08C831A8309838FEF9FE79E83B3
:101BC0008D83AE01475E5F4F6F89788DCE010196A0
:101BD0000E94F30DEF81F885E00FF11F10822E9621
:101BE000E4E00C949510ACE0B0E0E9EFFDE00C947B
:101BF0006B107C016B018A01FC01178216828381C4
:101C000081FFBDC1CE0101964C01F7019381F60120
:101C100093FD859193FF81916F01882309F4ABC1F6
:101C2000853239F493FD859193FF81916F0185325F
:101C300029F4B70190E00E94DB0FE7CF512C312C43
:101C400020E02032A0F48B3269F030F4803259F079
:101C5000833269F420612CC08D3239F0803339F43D
:101C6000216026C02260246023C0286021C027FD97
:101C700027C030ED380F3A3078F426FF06C0FAE07E
:101C80005F9E300D1124532E13C08AE0389E300D14
:101C90001124332E20620CC08E3221F426FD6BC13C
:101CA000206406C08C3611F4206802C0883641F4E6
:101CB000F60193FD859193FF81916F018111C1CF51
:101CC000982F9F7D9554933028F40C5F1F4FFFE3AE
:101CD000F9830DC0833631F0833771F0833509F015
:101CE0005BC022C0F801808189830E5F1F4F4424AE
:101CF0004394512C540115C03801F2E06F0E711C51
:101D0000F801A080B18026FF03C0652D70E002C0FD
:101D10006FEF7FEFC5012C870E94D00F2C0183014C
:101D20002C852F77222E17C03801F2E06F0E711C20
:101D3000F801A080B18026FF03C0652D70E002C0CD
:101D40006FEF7FEFC5012C870E94C50F2C012C85FA
:101D50002068222E830123FC1BC0832D90E04816AF
:101D60005906B0F4B70180E290E00E94DB0F3A948C
:101D7000F4CFF50127FC859127FE81915F01B70122
:101D800090E00E94DB0F31103A94F1E04F1A5108B5
:101D90004114510471F7E5C0843611F0893639F5E4
:101DA000F80127FF07C060817181828193810C5FF8
:101DB0001F4F08C060817181882777FD8095982F1B
:101DC0000E5F1F4F2F76B22E97FF09C0909580951A
:101DD000709561957F4F8F4F9F4F2068B22E2AE0FC
:101DE00030E0A4010E940D10A82EA81844C0853729
:101DF00029F42F7EB22E2AE030E025C0F22FF97FA1
:101E0000BF2E8F36C1F018F4883579F0B4C0803712
:101E100019F0883721F0AFC02F2F2061B22EB4FE09
:101E20000DC08B2D8460B82E09C024FF0AC09F2FDF
:101E30009660B92E06C028E030E005C020E130E011
:101E400002C020E132E0F801B7FE07C06081718175
:101E5000828193810C5F1F4F06C06081718180E099
:101E600090E00E5F1F4FA4010E940D10A82EA8182D
:101E7000FB2DFF77BF2EB6FE0BC02B2D2E7FA5149A
:101E800050F4B4FE0AC0B2FC08C02B2D2E7E05C053
:101E90007A2C2B2D03C07A2C01C0752C24FF0DC089
:101EA000FE01EA0DF11D8081803311F4297E09C005
:101EB00022FF06C07394739404C0822F867809F0C1
:101EC000739423FD13C020FF06C05A2C731418F41A
:101ED000530C5718732C731468F4B70180E290E028
:101EE0002C870E94DB0F73942C85F5CF731410F4AC
:101EF000371801C0312C24FF12C0B70180E390E0F5
:101F00002C870E94DB0F2C8522FF17C021FF03C006
:101F100088E590E002C088E790E0B7010CC0822F0E
:101F2000867859F021FD02C080E201C08BE227FDD6
:101F30008DE2B70190E00E94DB0FA51438F4B701E1
:101F400080E390E00E94DB0F5A94F7CFAA94F4014B
:101F5000EA0DF11D8081B70190E00E94DB0FA11016
:101F6000F5CF332009F451CEB70180E290E00E9412
:101F7000DB0F3A94F6CFF7018681978102C08FEF8D
:101F80009FEF2C96E2E10C948710FC0105906150C4
:101F900070400110D8F7809590958E0F9F1F08957F
:101FA000FC016150704001900110D8F78095909528
:101FB0008E0F9F1F08950F931F93CF93DF93182FBA
:101FC000092FEB018B8181FD03C08FEF9FEF20C0B4
:101FD00082FF10C04E815F812C813D8142175307E3
:101FE0007CF4E881F9819F012F5F3F4F398328837B
:101FF000108306C0E885F985812F0995892B29F77B
:102000002E813F812F5F3F4F3F832E83812F902F63
:10201000DF91CF911F910F910895FA01AA272830DF
:1020200051F1203181F1E8946F936E7F6E5F7F4FA5
:102030008F4F9F4FAF4FB1E03ED0B4E03CD0670F21
:10204000781F891F9A1FA11D680F791F8A1F911D74
:10205000A11D6A0F711D811D911DA11D20D009F4C4
:1020600068943F912AE0269F11243019305D319306
:10207000DEF6CF010895462F4770405D4193B3E0EF
:102080000FD0C9F7F6CF462F4F70405D4A3318F096
:10209000495D31FD4052419302D0A9F7EACFB4E047
:1020A000A6959795879577956795BA95C9F70097FF
:1020B0006105710508959B01AC010A2E06945795A0
:1020C000479537952795BA95C9F7620F731F841FF7
:1020D000951FA01D08952F923F924F925F926F928D
:1020E0007F928F929F92AF92BF92CF92DF92EF92A8
:1020F000FF920F931F93CF93DF93CDB7DEB7CA1B29
:10210000DB0B0FB6F894DEBF0FBECDBF09942A8853
:10211000398848885F846E847D848C849B84AA84FB
:10212000B984C884DF80EE80FD800C811B81AA8188
:10213000B981CE0FD11D0FB6F894DEBF0FBECDBF53
:08214000ED010895F894FFCFB2
:102148001464000001000100010002000200020006
:10215800020003000300030004000400040004005C
:10216800050005000500050006000600060007003A
:102178000700070007000800080008000900090018
:10218800090009000A000A000A000B000B000B00F6
:102198000B000C000C000C000D000D000D000E00D3
:1021A8000E000E000E000F000F000F0010001000B0
:1021B800100011001100110012001200120013008B
:1021C8001300130014001400140015001500150066
:1021D8001600160016001700170017001800180040
:1021E80018001900190019001A001A001B001B001A
:1021F8001B001C001C001C001D001D001E001E00F2
:102208001E001F001F0020002000200021002100C8
:10221800220022002200230023002400240025009D
:102228002500260026002600270027002800280071
:10223800290029002A002A002B002B002C002C0042
:102248002D002E002E002F002F003000300031000E
:1022580031003200330033003400340035003600DA
:10226800360037003800380039003A003A003B00A1
:102278003C003C003D003E003F003F004000410064
:102288004200430043004400450046004700480020
:10229800490049004A004B004C004D004E004F00D9
:1022A8005000510052005300540055005700580088
:1022B80059005A005B005C005E005F00600061002E
:1022C8006300640065006700680069006B006C00CB
:1022D8006E006F007100720074007600770079005C
:1022E8007B007C007E0080008200840086008700DE
:1022F80089008B008D009000920094009600980051
:102308009B009D009F00A200A400A700A900AC00AC
:10231800AE00B100B400B700B900BC00BF00C200F5
:10232800C500C800CC00CF00D200D600D900DD001F
:10233800E000E400E700EB00EF00F300F700FB002B
:10234800FF000100020003000400060008000A0064
:102358000C00100015001B0024002E003C004E004D
:1023680066008400AC00DF0022017901EA017D02E9
:102378003C03350478051C073E09030C9E0F4D14D9
:082388004F4E004F46460000D5
:00000001FF
