:100000000C942A000C9447000C9447000C94470071
:100010000C9447000C9447000C9447000C94490042
:100020000C9447000C9447000C9447000C94470034
:100030000C9447000C9428030C9447000C94470040
:100040000C9447000C9447000C9447000C94470014
:100050000C94470011241FBECFE5D8E0DEBFCDBF12
:1000600011E0A0E6B0E0E4E6F8E302C005900D92EE
:10007000A43DB107D9F715E0A4EDB1E001C01D9290
:10008000A833B107E1F70E945A000C94311C0C947C
:1000900000001F920F920FB60F9211248F93809140
:1000A000D40181608093D4018F910F900FBE0F9087
:1000B0001F9018950F931F93CF93DF9360E875E21D
:1000C00080E090E00E94F9020E940B080E945E040A
:1000D0000E94D1120E94E4080E940F1382E00E9445
:1000E00020048BE08EBD88EA91E69BBD8ABD80E14D
:1000F00089BF8AB3807F8ABB8BB38F608BBB8FEF46
:1001000084BB8AB38F708ABB0EEE13E0D8010E94C5
:10011000E71B802D882309F048C0CFEED3E0DE0135
:100120000E94E71B802D823209F03FC0E0EFF3E030
:10013000DF010E94E71B802D893F09F036C061EF87
:1001400073E0DB010E94E71B802D813071F542EFE7
:1001500053E0DA010E94E71B802D8F3F31F123EF3E
:1001600033E0D9010E94E71B802D8F3FF1F0D801C9
:100170000E94E71B802D982FDE010E94E71B802D37
:10018000182FDF010E94E71B802DE82FDB010E9462
:10019000E71B802D682FDA010E94E71B802D482F76
:1001A000D9010E94E71B802D26C090E0AEEEB3E09F
:1001B000092E0E94EF1B82E2AFEEB3E0082E0E94F0
:1001C000EF1B89EFA0EFB3E0082E0E94EF1B81E048
:1001D000A1EFB3E0082E0E94EF1BA2EFB3E0092EBF
:1001E0000E94EF1BA3EFB3E0082E0E94EF1B40E03C
:1001F00061E0E9EF12E29093D6011093D701E0930A
:10020000D8016093D9014093DA018093DB012CEF90
:1002100033E0D9010E94E71B802D882309F454C0E4
:10022000D9010E94E71B802D8F3F09F44DC04DEF8F
:1002300053E0DA010E94E71B802D8F3F09F444C090
:10024000EEEFF3E0DF010E94E71B802D8F3F09F402
:100250003BC06FEF73E0DB010E94E71B802D88231A
:1002600099F1DB010E94E71B802D8F3F69F1D901D5
:100270000E94E71B802DDA010E94E71B802DD90127
:100280000E94E71B202DDA010E94E71B402D9927D1
:10029000D82FCC273327C22BD32BDF010E94E71B9B
:1002A000802DDB010E94E71B802DDF010E94E71BF0
:1002B000202DDB010E94E71B402D9927982F8827CE
:1002C0003327822B932B1CC080ECACEFB3E0082EBD
:1002D0000E94EF1B88EAADEFB3E0082E0E94EF1BEF
:1002E00080E0AEEFB3E0082E0E94EF1B8AE5AFEF8F
:1002F000B3E0082E0E94EF1B80E09AE5C0ECD8EA3C
:10030000D093DB02C093DA029093DD028093DC028B
:1003100048EF53E0DA010E94E71B802D882309F49F
:1003200039C06BEF73E0DB010E94E71B802D8F3F2C
:1003300089F1DA010E94E71B802DE9EFF3E0DF018C
:100340000E94E71B802DDA010E94E71B202DDF01B0
:100350000E94E71B402D9927F82FEE273327E22B29
:10036000F32B4AEF53E0DA010E94E71B802DDB01FB
:100370000E94E71B802DDA010E94E71B202DDB0184
:100380000E94E71B402D9927982F88273327822B1F
:10039000932B1AC08FEFA8EFB3E0082E0E94EF1B3B
:1003A000A9EFB3E0082E0E94EF1BAAEFB3E0082EDE
:1003B0000E94EF1B80E0ABEFB3E0082E0E94EF1B22
:1003C0008FEF90E0EFEFFFEFF093D702E093D602CC
:1003D0009093D9028093D80224EF33E0D9010E9490
:1003E000E71B802D882309F454C0D9010E94E71B24
:1003F000802D8F3F09F44DC045EF53E0DA010E9494
:10040000E71B802D8F3F09F45FCFE6EFF3E0DF01BC
:100410000E94E71B802D8F3F09F456CF67EF73E0F2
:10042000DB010E94E71B802D882399F1DB010E94EC
:10043000E71B802D8F3F69F1D9010E94E71B802DBA
:10044000DA010E94E71B802DD9010E94E71B202DB5
:10045000DA010E94E71B402D9927D82FCC2733279C
:10046000C22BD32BDF010E94E71B802DDB010E94F2
:10047000E71B802DDF010E94E71B202DDB010E947E
:10048000E71B402D9927982F88273327822B932B02
:100490001CC080ECA4EFB3E0082E0E94EF1B88EA9A
:1004A000A5EFB3E0082E0E94EF1B80E0A6EFB3E0BB
:1004B000082E0E94EF1B8EEFA7EFB3E0082E0E94DC
:1004C000EF1B80E09EEFC0ECD8EAD093D302C0933C
:1004D000D2029093D5028093D40278948EED92E06C
:1004E0000E9476079093680280936702892B99F1A6
:1004F0000091EA021091EB0280E098E00E946A0904
:100500000817190781F481E00E948209809167022F
:1005100090916802892BF9F00E949F116091670207
:100520007091680214C00091EA021091EB0286E01B
:1005300098E00E946A090817190769F40E94F410EC
:1005400060916702709168026115710521F08EED6E
:1005500092E00E94AA038091D40180FF31C0F894F8
:100560008091D4018E7F8093D4017894CCEAD2E03C
:10057000D0937302C093720282E00E94820980913C
:10058000670290916802892B51F00E949F1160913F
:100590006702709168028EED92E00E94AA036C9748
:1005A000B2E0C835DB0721F780917100815080935C
:1005B0007100882329F40E94A51284E680937100BB
:1005C0008091480280FF8ACF80E690E00E941B0362
:1005D00061E089E492E00E944414882321F483E6D8
:1005E00090E00E941B03809148028E7F8093480216
:1005F00075CF9B01AC0188E98AB984E0220F331FD3
:10060000441F551F8A95D1F760E074E284EF90E0B3
:100610000E949B1B215029B9809148028B7F8093B7
:1006200048020895982F8091480282FD03C05D9B87
:10063000FECF9CB90895CF93DF93EC0103C02196C0
:100640000E94120388818823D1F7DF91CF9108950A
:100650001F920F920FB60F9211241F932F933F9367
:100660004F935F936F937F938F939F93AF93BF93BA
:10067000EF93FF938091480282FD3EC01CB1812F11
:100680000E9412038091480280FF04C080914802BA
:10069000826020C0183049F48091D501882309F484
:1006A00047C08091D501815024C01D30B1F4E09144
:1006B000D501FF27E85BFD4F80818C3571F0E0911B
:1006C000D501FF27E75BFD4F10821092D501809185
:1006D00048028160809348022BC08091D5018D3102
:1006E00038F58091D501E82FFF27E75BFD4F108398
:1006F0008F5F8093D5011CC02091720030917300F0
:10070000809174009091750001972817390781F046
:100710008CB1F9018193F0937300E0937200E65677
:10072000F24031F42C51304030937300209372002A
:10073000FF91EF91BF91AF919F918F917F916F91B9
:100740005F914F913F912F911F910F900FBE0F908E
:100750001F901895EF92FF921F93CF93DF937C0128
:10076000EB0111E3C4988FE10E9413080E9429084D
:10077000C49A83FF06C080E49CE90197F1F7115009
:1007800088F7C4988FEB0E94130883E00E94130837
:10079000C49AC4988FE90E94130880E00E9413084D
:1007A000C49AC49882E40E94130880E00E9413084F
:1007B000C49AC49883E40E94130888E10E94130835
:1007C000C49AC49886E40E9413088C2F0E941308D0
:1007D000C49AC49887E40E941308C050D84E8D2F45
:1007E0009927C050D8410E941308C49AC4988AE738
:1007F0000E94130880E00E941308BE01C7010E94F6
:100800001908C49AC4988FE90E94130880E80E94CE
:100810001308C49AC4988FEB0E94130880E80E94C2
:100820001308C49AC4988FE90E94130888E00E94B4
:100830001308C49ADF91CF911F91FF90EF90089514
:100840001F93182FC4988FEB0E94130883E00E9417
:100850001308C49AC4988FE90E94130883E00E9489
:100860001308C49A113031F4C49885E50E94130826
:1008700081E01FC0123031F4C49885E50E9413084E
:1008800082E017C0133031F4C49885E50E94130844
:1008900083E00FC0143031F4C49885E50E9413083A
:1008A00084E007C0183041F4C49885E50E9413081D
:1008B00085E00E941308C49A1F9108951F9387B37F
:1008C000806B87BB87B38B7B87BBC49A01C000005A
:1008D000C4988DE10E9413080E942908C49A80FFE1
:1008E000F6CFC4988FEF0E941308C49A80E49CE965
:1008F0000197F1F7C4988FEB0E94130883E00E94E0
:100900001308C49AC4988FE90E94130882E00E94D9
:100910001308C49AC49884E50E94130880E00E94DA
:100920001308C49AC49886E50E94130880E00E94C8
:100930001308C49AC49887E50E94130880E80E94AF
:100940001308C49AC4988FEB0E94130883E00E9496
:100950001308C49AC4988FE90E94130883E00E9488
:100960001308C49A01C00000C4988AE00E941308CA
:1009700080E00E9413080E942908C49A80FDF3CFEA
:1009800001C00000C4988FEB0E94130883E00E940E
:100990001308C49AC4988FE90E94130882E00E9449
:1009A0001308C49AC49884E50E94130880E00E944A
:1009B0001308C49AC49882E90E94130881E00E9437
:1009C0001308C49AC4988FEB0E94130883E00E9416
:1009D0001308C49AC4988FE90E94130883E00E9408
:1009E0001308C49A01C00000C4988AE00E9413084A
:1009F00080E00E9413080E942908C49A80FDF3CF6A
:100A0000C4988FEB0E94130883E00E941308C49AD5
:100A1000C4988FE90E94130882E00E941308C49AC8
:100A2000C49882EB0E94130881E00E941308C49AC4
:100A3000C49888E10E94130880E00E9413080E9475
:100A40002908C49AC49889E10E94130880E00E9492
:100A500013080E942908C49A9927982F882797FD80
:100A600090CFC4988FEB0E94130883E00E94130874
:100A7000C49AC4988FE90E94130880E00E9413086A
:100A8000C49AC49888E40E94130880E00E94130866
:100A9000C49AC49889E40E94130880E00E94130855
:100AA000C49AC4988AE40E9413088FEF0E94130826
:100AB000C49AC4988BE40E94130887E10E9413082B
:100AC000C49AC49880E40E94130880E00E9413082E
:100AD000C49AC49881E40E94130880E00E9413081D
:100AE000C49AC4988CE40E9413088FEF0E941308E4
:100AF000C49AC4988DE40E94130887E10E941308E9
:100B0000C49AC49884E40E94130880E00E941308E9
:100B1000C49AC49885E40E94130888E10E941308CF
:100B2000C49AC4988FEB0E94130883E00E941308B4
:100B3000C49AC4988FE90E94130882E00E941308A7
:100B4000C49AC49880E40E94130881E00E941308AC
:100B5000C49AC49882E80E94130882E30E94130892
:100B6000C49AC49883E80E94130880E40E94130882
:100B7000C49AC4988AE40E94130888EF0E9413085C
:100B8000C49AC49880E50E94130881E00E9413086B
:100B9000C49AC49886E40E94130882E10E94130854
:100BA000C49AC49887E40E9413088CE00E9413083A
:100BB000C49AC49884E40E94130882E10E94130836
:100BC000C49AC4988FEB0E94130883E00E94130814
:100BD000C49AC4988FE90E94130883E00E94130806
:100BE000C49AAEEEB3E00E94E71B802D8F3F09F060
:100BF00053C0AFEEB3E00E94E71B802D8F3F09F09A
:100C00004BC0A0EFB3E00E94E71B802D8F3F09F09F
:100C100043C0A1EFB3E00E94E71B802D8F3FE1F5B9
:100C2000A2EFB3E00E94E71B802D8F3FA9F5A3EF51
:100C3000B3E00E94E71B802D8F3F71F5C49884E4D8
:100C40000E94130880E00E941308C49AC49885E4A7
:100C50000E94130882E20E941308C49AC49882E496
:100C60000E94130889EF0E941308C49AC49883E471
:100C70000E94130881E00E941308C49AC49880E47B
:100C80000E94130880E00E941308C49AC49881E46B
:100C90000E94130881E04BC0AEEEB3E00E94E71B58
:100CA000102DC49884E40E941308812F0E94130819
:100CB000C49AAFEEB3E00E94E71B102DC49885E400
:100CC0000E941308812F0E941308C49AA0EFB3E07A
:100CD0000E94E71B102DC49882E40E941308812F04
:100CE0000E941308C49AA1EFB3E00E94E71B102DE5
:100CF000C49883E40E941308812F0E941308C49AA9
:100D0000A2EFB3E00E94E71B102DC49880E40E947C
:100D10001308812F0E941308C49AA3EFB3E00E9426
:100D2000E71B102DC49881E40E941308812F0E94B4
:100D30001308C49AC4988FEB0E94130883E00E94A2
:100D40001308C49AC4988FE90E94130882E00E9495
:100D50001308C49AC49884E50E94130880E10E9495
:100D60001308C49AC49886E50E94130880E00E9484
:100D70001308C49AC49887E50E94130881E00E9472
:100D80001308C49AC4988FEB0E94130883E00E9452
:100D90001308C49AC4988FE90E94130883E00E9444
:100DA0001308C49A01C00000C4988AE00E94130886
:100DB00080E00E9413080E942908C49A80FDF3CFA6
:100DC000C4988FEB0E94130883E00E941308C49A12
:100DD000C4988FE90E94130882E00E941308C49A05
:100DE000C49884E50E94130884E10E941308C49A01
:100DF000C49886E50E94130882EC0E941308C49AE6
:100E0000C49887E50E94130881E30E941308C49ADE
:100E1000C4988FEB0E94130883E00E941308C49AC1
:100E2000C4988FE90E94130883E00E941308C49AB3
:100E300001C00000C4988AE00E94130880E00E946C
:100E400013080E942908C49A80FDF3CFC4988FEB41
:100E50000E94130883E00E941308C49AC4988FE983
:100E60000E94130882E00E941308C49AC49884E583
:100E70000E94130880E00E941308C49AC49886E573
:100E80000E94130880E00E941308C49AC49887E562
:100E90000E94130880E00E941308C49AC4988FEB44
:100EA0000E94130883E00E941308C49AC4988FE933
:100EB0000E94130883E00E941308C49A01C0000036
:100EC000C4988AE00E94130880E00E9413080E94E0
:100ED0002908C49A80FDF3CFC4988FE90E941308B3
:100EE00084E00E941308C49A1F910895EF92FF9224
:100EF0000F931F93CF93DF937C01C4988FEB0E94D5
:100F0000130883E00E941308C49AC4988FE90E94D2
:100F1000130881E00E941308C49AC49889E10E94D2
:100F200013080E942908C49A882319F400E010E0ED
:100F30006AC0C4988AE30E9413080E942908C82F37
:100F4000DD270E9429089927982F8827C82BD92B9D
:100F50000E942908082F11270E9429089927982FF5
:100F60008827082B192B045010400E9429080E9442
:100F7000290881E0053F180720F4B801C7010E9445
:100F80003108C49AC4988FEB0E94130883E00E9432
:100F90001308C49AC4988FE90E94130880E00E9445
:100FA0001308C49AC49880E40E9413088C2F0E94EE
:100FB0001308C49AC49881E40E9413088D2F9927BE
:100FC0000E941308C49A21978FEFCF3FD80711F4DE
:100FD000CFEFD7E1C4988CE40E9413088C2F0E94B5
:100FE0001308C49AC4988DE40E9413088D2F992782
:100FF0000E941308C49AC4988EE90E94130880E4E2
:101000000E941308C49AC801DF91CF911F910F91DC
:10101000FF90EF9008951DB81EB88DB18DB98DB1B8
:1010200080658DB908958FB901C00000779BFDCF11
:101030000895FC0107C080818FB901C00000779B33
:10104000FDCF3196615070408FEF6F3F780799F771
:1010500008951FB801C00000779BFDCF8FB199277D
:101060000895FC0107C01FB801C00000779BFDCFA9
:101070008FB18193615070408FEF6F3F780799F780
:1010800008959093DD018093DC010895FC01838134
:10109000860F80936E02272F33278281820F8093E1
:1010A0006D02418140936C02E081E0936B029927CD
:1010B0008217930748F4842F8F5F80936C028823F4
:1010C00019F4EF5FE0936B0280916E0299277070C4
:1010D0008617970798F480916D028F5F80936D0259
:1010E000882361F480916C028F5F80936C02882367
:1010F00029F480916B028F5F80936B020895DC016D
:10110000460F571F41505040FB010EC08081992768
:10111000982F88272181820F911DA80FB91FA8172A
:10112000B90708F411963296E417F50778F3E41737
:10113000F50751F480819927982F8827A80FB91FA8
:10114000A817B90708F41196CD010895CF93DF933E
:1011500044E150E06CEE72E080E090E00E947F0895
:10116000009719F4CFEFDFEF02C0C92FD82FCE01BF
:10117000DF91CF9108950F931F93CF93DF938091C9
:10118000EE029927982F88272091EF02820F911D58
:101190008C010451104048E050E068EF72E00E9777
:1011A0000E947F08A80160E073E00E947F0800971A
:1011B00019F4CFEFDFEF02C0C92FD82FCE01DF9196
:1011C000CF911F910F9108951092C9021092C802F9
:1011D0001092CB021092CA021092CD021092CC0251
:1011E0001092CF021092CE021092D1021092D00231
:1011F00010928D021092A9021092C50283E0809392
:10120000E40180E094E09093E3018093E20108958B
:10121000BC011092E40140E020E030E0E8ECF2E0B4
:10122000DF01808191818617970729F44093E401BB
:101230001D921C920895422F4F5F2F5F3F4F1296D1
:1012400032962530310569F74093E4010895BC01D9
:101250001092E40140E020E030E0E8ECF2E0DF0151
:1012600080819181892B29F44093E4016D937C93D3
:101270000895422F4F5F2F5F3F4F129632962530D1
:10128000310571F74093E4010895BC018091720229
:101290009091730208960E944608E0917202F091C4
:1012A000730280916B028087E0917202F091730269
:1012B00080916C028187E0917202F09173028091BB
:1012C0006D028287E0917202F091730280916E024A
:1012D00083870895292F382FC90108959C01AB01F8
:1012E0001616170674F47093D5046093D404809195
:1012F000690290916A022817390719F0B9010E9412
:10130000041B08950F931F93CF93DF93C091720234
:10131000D091730224E133E0309371022093700284
:1013200030936A0220936902833059F4898D8F705B
:10133000833009F019C688899989892B09F014C668
:1013400089C0823009F08AC08091E1018F5F80936B
:10135000E101882399F48091E0018F5F8093E0019F
:10136000882361F48091DF018F5F8093DF01882300
:1013700029F48091DE018F5F8093DE011092680274
:10138000109267021092D5041092D404298D273050
:1013900011F0253041F48A8D8F5F8A8F883709F0EC
:1013A000E3C5198EE1C5222309F4DEC58889998930
:1013B000892B09F44BC08A8D81508A8F8F3F09F0A9
:1013C000D3C53B8D383029F02150223048F43530D8
:1013D00039F4198E80E880936F020E94E71273C47B
:1013E000353010F080E307C083E090E002C0880F42
:1013F000991F3A95E2F78A8F8B8D8F5F8B8F898D3E
:1014000099278F70907083309105D1F084309105C9
:1014100044F48130910509F439C2029709F0A4C55A
:101420000CC08630910509F4E1C38830910509F4B8
:10143000DDC3049709F098C5D9C310920D0329C2E2
:1014400084E080936F020E94E71273C42F702330F0
:1014500009F08AC588E080936F0228C48901085288
:1014600010408091EC02853409F07EC58091EE0237
:101470009927382F22278091EF02280F311D809164
:101480006702909168028217930708F46DC5309344
:101490006802209367028091F20299278F739070FF
:1014A000892B09F061C58091F302882309F05CC59E
:1014B0002091DA023091DB022115310531F480915F
:1014C000DC029091DD02892BA1F08091FC029091C9
:1014D000FD028217930709F047C52091FE02309163
:1014E000FF028091DC029091DD022817390709F094
:1014F0003BC50E94A6088F5F9F4F09F035C58091BC
:10150000F5028630D1F1813009F02EC580910003BB
:10151000883009F029C51092000380910203909150
:101520000303EFEF873F9E0710F0099601C008966E
:1015300090930303809302038091F8029091F90243
:101540009093FD028093FC028091FA029091FB023D
:101550009093FF028093FE028091DA029091DB0269
:101560009093F9028093F8028091DC029091DD0261
:101570009093FB028093FA02FBC40E94BB088F5F2A
:101580009F4F09F0F1C4C4E7D2E0E0910203F0916B
:10159000030360910003709101034091F8025091A0
:1015A000F9022091FA023091FB0219C0898D88233B
:1015B000A9F08C819D81E817F90781F48E819F81C4
:1015C0006817790759F4888199814817590731F4C8
:1015D0008A819B812817390709F474C16C9682E0CF
:1015E000CC3AD80719F310F380910D038F73823032
:1015F000C9F420910203309103033093E701209353
:10160000E6011092E40140E0E8ECF2E08081918193
:101610002817390709F47CC04F5F32964530B1F77F
:101620004093E40180910D0382FD9EC484E1F801A2
:1016300081A388E290E0909368028093670280E53E
:1016400080A39091070380910B03838F4091060341
:1016500080910A03828F468F3091050380910903A0
:10166000818F358F209104032093E401809108033A
:10167000808F248F9F5F978F992361F4842F8F5FD2
:10168000868F882339F4832F8F5F858F882311F409
:101690002F5F248F20910003309101033093E701E5
:1016A0002093E6018091020390910303F801958B4A
:1016B000848B378B268B8091F8029091F90290935E
:1016C000FD028093FC028091FA029091FB029093BC
:1016D000FF028093FE028091DA029091DB029093E8
:1016E000F9028093F8028091DC029091DD029093E0
:1016F000FB028093FA02F4C39093E4018CE1489FCB
:10170000E0011124CC58DD4F23C01092E501BCC08C
:101710001092E401E4E7F2E0C0E0D0E090E020E0E5
:1017200030E0422F818D882339F3873039F42097B8
:1017300021F0928D8A8D891708F4EF01942F9F5F15
:101740002F5F3F4F7C962330310559F79093E4018A
:10175000209709F409C4D0937302C093720283E006
:101760008A8F888F1E8A84E08F8B1B8E8091020364
:10177000909103039D838C838091000390910103DA
:101780009F838E838091F8029091F90299838883D8
:101790008091FA029091FB029B838A8381E0898F7A
:1017A0008091DE018C878091DF018D878091E0013F
:1017B0008E878091E1018F8781E090E0998B888B03
:1017C000809107038B87809106038A8780910503A8
:1017D000898780910403888781E090E00E94450911
:1017E00020910C03822F9927807F9070813591057D
:1017F0000CF44CC01092E4019091E50140E0229578
:101800002F70332725503040220F331F220F331FF4
:1018100034C0DB01A252BD4FFD0196A9992309F402
:1018200074CF913011F44F5F28C09230F9F4FD016C
:1018300087A98430D9F49093E5014093E40120AD69
:101840003327322F222781AD9927282B392B30932C
:10185000E7012093E601F1E02F3B3F0710F02EEB6C
:1018600031E03B8B2A8B3D8B2C8B10C062527D4F1D
:10187000FB0187A9882331F0480F642F772762176F
:1018800073073CF29093E5014093E40180E180937B
:101890000D0380910D03826080930D0382E080939D
:1018A000140384E08093150381E0809316038EEB8C
:1018B000809317038CE290E0909368028093670214
:1018C00080E6BBC2D0937302C093720210926F0283
:1018D00080910D03482F552742FF03C0198E80E2E7
:1018E00055C280910C0382958F70880F880F80936A
:1018F000E4012091670230916802281B31092451CC
:1019000030403093680220936702898D8F70823057
:1019100029F4CA018F7390704297F1F0232B21F4C0
:1019200043705070452BC1F090910403888598173F
:1019300009F079C2909105038985981709F073C25F
:10194000909106038A85981709F06DC2909107035C
:101950008B85981709F067C280910D0384FF50C0F2
:10196000688979896115710509F44AC0CE010C9620
:101970000E9446082091080380916B02281709F005
:101980003FC09091090380916C029817C9F590911E
:101990000A0380916D02981799F590910B0380913D
:1019A0006E02981769F52C8780916C028D87809163
:1019B0006D028E8780916E028F878B8D8823C9F48C
:1019C0002E89888D9A8D891B922F9695969596953E
:1019D000891B280F2E8B3F8987FD8195932F969524
:1019E0009695891B830F8F8B269526952695280F14
:1019F000288F81E080936F02888D8A8F198A188AD8
:101A0000898D282F3327C9018F70907084309105FC
:101A100009F4C1C1853091055CF482309105A9F1CA
:101A2000833091050CF0B7C0019709F09DC210C03A
:101A30008630910509F4EFC1863091050CF4CBC1D5
:101A40008730910509F4EFC1089709F08DC298C15C
:101A500080916F0280FF88C283E0898F80E4809349
:101A60006F02198A188A2091670230916802211545
:101A7000310509F417C182E480936F02C9010E9405
:101A8000450910C11092E5015DC080916F0280FF91
:101A900077C080910D038F73823109F071C020915E
:101AA0000C03822F9927807F9070813591050CF46B
:101AB0004BC01092E4019091E50140E022952F7017
:101AC000332725503040220F331F220F331F33C0DE
:101AD000DB01A252BD4FFD0196A9992399F29130E5
:101AE00011F44F5F28C09230F9F4FD0187A98430CA
:101AF000D9F49093E5014093E40120AD3327322FD0
:101B0000222781AD9927282B392B3093E701209389
:101B1000E601F1E02F3B3F0710F02EEB31E03B8B6D
:101B20002A8B3D8B2C8B10C062527D4FFB0187A905
:101B3000882331F0480F642F77276217730744F228
:101B40009093E5014093E40183E0898F8091040341
:101B50008887809105038987809106038A87809111
:101B600007038B8781E090E00E94450982E480931F
:101B70006F02198A188A109268021092670292C046
:101B800080E280936F020E94E712E0917202F0916E
:101B90007302118E47CD80910D03992780FF2AC0D3
:101BA00024FD28C088899989892B09F0DDC180919D
:101BB00067029091680201960E94450920916F0288
:101BC000822F806180936F028091670290916802FA
:101BD000892B19F0226120936F020E94E71281E0A5
:101BE00090E0998B888B88E0898F1B8E81E18093B0
:101BF0000D031CC185FF1EC0209112033327322F15
:101C00002227809113039927282B392B809170026A
:101C100090917102820F931F9093710280937002D2
:101C20008091670290916802821B930B90936802E7
:101C30008093670220916702309168022115310577
:101C400059F0898D84FD08C080916F028260809375
:101C50006F02C9010E94450980910E039927382F10
:101C6000222780910F03280F311D3093E701209325
:101C7000E6018C899D898217930710F0232B21F4AC
:101C80009093E7018093E6018091E6019091E7014E
:101C90009B8B8A8B80916F02992783709070892B20
:101CA00009F462C11092D5041092D4040E94E71284
:101CB00080916F02282F332725FF07C01092D5048B
:101CC0001092D404198E84E192CF24FF0AC010929E
:101CD000D5041092D40481E090E0998B888B84E045
:101CE00083CF8091D4049091D504892B09F120FFF2
:101CF00003C0198A188A04C0888999890097A1F4B9
:101D00002A893B898091D4049091D50428173907FA
:101D100020F43093D5042093D4048091D40490917E
:101D2000D504998B888B04C09093D5048093D404F8
:101D30001B8E8091690290916A0290937102809348
:101D400070028091D4049091D504892B59F0888930
:101D50009989009739F0889690936802809367027A
:101D600088E10BC080916F0281FFFEC088E290E0A5
:101D7000909368028093670280E180930D035CC0BA
:101D800080916F0280FFF0C0198E80E180936F0216
:101D90000E94E712E9C08091670290916802009763
:101DA00011F00E94450980910D0390916F0280FF10
:101DB0000BC090FF06C087E0898F1A8E198A188A97
:101DC00019C086E0898F16C090FF1EC085E0898FFC
:101DD000198A188AC9C08091670290916802009799
:101DE00011F00E94450980910D0380FF0DC087E02E
:101DF000898F1A8E81E090E00E94450980E18093EE
:101E00006F020E94E7120FC08091670290916802F2
:101E1000892B49F4A9C080916F0280FFA5C087E09B
:101E2000898F1A8EA1C080E1F80181A388E290E039
:101E3000909368028093670280E580930C03888505
:101E4000809308038985809309038A8580930A0318
:101E50008B8580930B038C85809304038D85809301
:101E600005038E85809306038F858093070386E0A4
:101E70008093F5028C819D819093010380930003F0
:101E80008E819F8190930303809302038091DA02F5
:101E90009091DB029093F9028093F8028091DC022A
:101EA0009091DD029093FB028093FA0288819981E0
:101EB0009093FD028093FC028A819B819093FF02A4
:101EC0008093FE02898D84FF05C010920F0310924B
:101ED0000E0306C081E080930E038EEB80930F0308
:101EE00080E48093F4028091670290916802892FC8
:101EF00099278093EE02809167028093EF021092FF
:101F000013031092120310921103109210030E94F7
:101F1000BB0880959095909311038093100385E4FE
:101F20008093EC021092ED021092F3021092F202F2
:101F30008091DC019091DD0101969093DD01809309
:101F4000DC01292F33272093F0028093F1021092B5
:101F5000F7021092F6020E94A60880959095909341
:101F6000F7028093F60204C0109268021092670292
:101F700010926F02DF91CF911F910F9108950F93EF
:101F80001F93AB01BC0180E090E00E947F08092F05
:101F9000182FC8011F910F910895EF92FF920F9390
:101FA0001F93CF93DF938C012091E2013091E301E5
:101FB0002F5F3F4F8DE72030380710F020E030E1F1
:101FC000432F522FE4E7F2E0A0E0818D882329F02F
:101FD000848195818417950759F3AF5F7C96A33070
:101FE000A1F73093E3012093E2011092E401E0E0D5
:101FF000F0E090E041E0A4E7B2E0ED01898D8823B4
:1020000021F49093E401FD0114C0873041F430972E
:1020100029F0ED019A8D828D891708F4FD01842F36
:102020008F5F5C96843019F0942F482FE6CF409351
:10203000E401309781F182E0818F8091DE01848715
:102040008091DF0185878091E00186878091E101A1
:1020500087878EEB91E0938B828B958B848B81E0CD
:1020600090E0918B808B138E81E0828F83E0808F54
:10207000168A80E1878BE32EF22EF582E482778345
:102080006683D8018D919C9191838083E8018A8138
:102090009B8193838283CF01DF91CF911F910F9119
:1020A000FF90EF900895DF92EF92FF920F931F93AE
:1020B000CF93DF938C017B0110924402DD2471E009
:1020C000C8EED1E0609146022881398121153105A1
:1020D000E9F04A815B8141155105C1F0D8018D912C
:1020E0009C918217930791F4F80182819381841760
:1020F000950761F4D0924402DE011496F70186E060
:1021000001900D928150E1F76A8766C0872F8F5F3B
:102110002B96893019F0D72E782FD6CF1092440203
:1021200040E050E028EE31E0E90188819981892B77
:1021300039F48A819B81892B19F45093440239C068
:102140004F5F255F3F4F483011F0542FEDCF409344
:102150004402483071F510924702109245021092E5
:102160004402B0914602CB2FDD2770E0A0E040E0B2
:1021700050E0E2EFF1E060819E01261B31098A2FD9
:102180009927821793071CF4AB2FA61B742F4F5F60
:102190005F4F3B964830510571F770934502A0930D
:1021A0004702709344028BE0789FE0011124C851EC
:1021B000DE4FF80180819181A281B381FE0181937C
:1021C0009193A193B193D70186E00D900192815034
:1021D000E1F7809146028A87DF91CF911F910F919D
:1021E000FF90EF90DF900895CF93DF938091670287
:1021F000909168028A9728F4109268021092670200
:102200009BC01092680210926702CEEDD2E08091DE
:10221000F2029091F30221E08030920729F0805081
:10222000924009F089C06CC02091040330910503ED
:102230008091DA029091DB022817390709F07CC0FF
:1022400020910603309107038091DC029091DD021A
:102250002817390709F070C0BE016A5E7F4FCE01B2
:102260004C960E94531080E092E09093F30280938A
:10227000F202DE019096FE01769686E001900D92C4
:102280008150E1F7A4EFB2E0E6EDF1E086E00190E5
:102290000D928150E1F7A4EEB2E0E6EDF1E086E0C8
:1022A00001900D928150E1F7EEEDF2E0DF019096A2
:1022B00086E00D9001928150E1F78091FA029091B1
:1022C000FB029FA38EA38091FC029091FD0299A72F
:1022D00088A78091DA029091DB029D8F8C8F80918C
:1022E000DC029091DD029F8F8E8F88E096E09D87C3
:1022F0008C878AE290E090936802809367021CC00A
:1023000020910403309105038091DA029091DB0261
:102310002817390789F4209106033091070380912B
:10232000DC029091DD022817390731F464EF72E086
:102330008AEF92E00E945310DF91CF910895CF93DE
:10234000DF93CEEDD2E06091FC027091FD022FEFA1
:102350006F3F720789F48091FE029091FF028F5FB8
:102360009F4F51F4DE01E6E7F0E086E001900D9228
:10237000815009F4CFC0FACF8091D6029091D70254
:10238000AB01482359232091DA023091DB028223EA
:10239000932348175907A1F4E091FE02F091FF0240
:1023A0008091D8029091D902AF01482359232091FE
:1023B000DC023091DD02822393234817590789F00C
:1023C0008091D2029091D302909341028093400277
:1023D0008091D4029091D50290934302809342025F
:1023E00008C07093410260934002F0934302E0936F
:1023F0004202109244026091400270914102409169
:1024000042025091430220E030E088EE91E0FC016E
:10241000808191816817790731F48281938148170F
:10242000590709F46DC02F5FCF010B96283011F0CA
:10243000322FEDCF20934402283009F063C046E0EC
:1024400050E06FEF70E08EED92E00E940D1BEEEF1A
:10245000F2E086E0DF011D928A95E9F77A97A6ED12
:10246000B1E086E00D9001928150E1F7A4EFB2E077
:10247000E6EDF1E086E001900D928150E1F7809168
:102480004002909141029FA38EA3809142029091BD
:10249000430290930703809306038091DA029091A0
:1024A000DB029D8F8C8F8091DC029091DD029093F6
:1024B000FD028093FC0280E091E09093F302809310
:1024C000F2029093ED028093EC0288E090E090930A
:1024D000EF028093EE0286E08093F00284E0809326
:1024E000F10288E096E09093EB028093EA0284E1A7
:1024F00093E090937102809370028AE290E01EC094
:1025000030934402AEEDB2E0349686E001900D9235
:102510008150E1F7A4EEB2E0E6EDF1E086E0019053
:102520000D928150E1F788E090E09093EB02809368
:10253000EA0280916702909168020E969093680279
:1025400080936702DF91CF910895809146028F5F5B
:10255000809346021092440290E07BE0482F55277A
:1025600060E0979FF0011124E851FE4F8081918136
:1025700022813381822B932B892B59F082859A01FA
:10258000281B31092837310524F01082118212826C
:102590001382962F9F5F692F983018F3909344020F
:1025A00008951092440290E02BE080E0929FF001A9
:1025B0001124E851FE4F10821182128213828F5F24
:1025C000982F883098F388E0809344020895E09132
:1025D0007202F091730284819581845C9247D9F4F0
:1025E00080916F02992786FD19C081FF17C060E0B6
:1025F00080917002909171020E944414813071F0B8
:102600008CE790E090937102809370026DE070E02F
:102610000E946E09089580E280936F02089584EC11
:1026200092E70E9427090895C09A00C0C0980895B3
:10263000882311F0939A01C09398929A8C988D9860
:102640008E988F98C09A00C0849B02C080E101C020
:1026500080E0859980628699806487998068C098B7
:1026600000C0C09A00C08499816085998260869973
:10267000846087998860C09899270895CF93DF93E5
:10268000662311F0939A01C0939892988C9A8D9A30
:102690008E9A8F9A979896989598949887FD979A7E
:1026A000C82FDD27C6FD969AC5FD959AC4FD949A5C
:1026B0000E9414139798969895989498C3FD979AAA
:1026C000C2FD969AC1FD959AC0FD949A0E9414137A
:1026D000949A959A969A979ADF91CF910895CF936D
:1026E000DF9305C021968FEFCF3FD80729F080E018
:1026F0000E94181387FDF6CF80E190E00197F1F773
:1027000080E00E9418139927DF91CF9108950E94CD
:102710006F13992708951F93182F0E946F1360E07D
:10272000812F0E943E131F91089582E00E948B1317
:10273000089581E00E948B130895662311F4805858
:1027400001C080540E948B1308951F93182F0E947C
:102750006F131A3049F4803410F480E401C080E033
:1027600080580E948B1304C061E0812F0E943E13A9
:102770001F910895CF93DF93EC0102C00E94A5132F
:1027800089918823D9F7DF91CF9108951F93182F4E
:102790000E946F1361E0812F0E943E131F910895E4
:1027A000CF93DF93EC0102C00E94A513FE01219696
:1027B00084918823C9F7DF91CF910895FF920F93F9
:1027C0001F93F82E8B9A8A9AB89A8C9A8D9A8E9A21
:1027D0008F9A80E09AEF0197F1F7959A949A0E9468
:1027E000141380E09EE40197F1F70E94141300E0B7
:1027F00011E0C8010197F1F70E941413C801019775
:10280000F1F794980E941413C8010197F1F788E238
:102810000E948B1388E00E948B130E94991386E01C
:102820000E948B138F2D0E948B131F910F91FF908D
:10283000089587B983E886B9369A3699FECF84B170
:1028400095B160E020E030E040E050E0369A369903
:10285000FECF84B195B1AA27BB27280F391F4A1F85
:102860005B1F6F5F643091F73798CA01B90124E0AC
:1028700030E040E050E00E94BD1BDA01C90108953C
:10288000E0E0F0E009940895DF92EF92FF920F9359
:102890001F93CF93DF93CDB7DEB724970FB6F8948D
:1028A000DEBF0FBECDBF9C838B836093D6049A831B
:1028B00089836AE870E0CE0103960E94521B8C0166
:1028C000DD2435C080E090E094C0D394ED2DFF2747
:1028D000EE0FFF1FEE0FFF1FEC57FE4F808191811F
:1028E000892B29F56CE870E0CE0101960E94521BFD
:1028F0008C01DD240DC0D394ED2DFF27EE0FFF1FBB
:10290000EE0FFF1FEC57FE4F80819181892BD1F292
:10291000ED2DFF27EE0FFF1FEE0FFF1FEC57FE4FB1
:10292000B801808191810E94141B892B21F7ED2C25
:10293000FF24F701EE0FFF1FEE0FFF1FEC57FE4FB6
:10294000B801808191810E94141B892B09F0BDCFB1
:10295000DD24F701EE0FFF1FEE0FFF1FEC57FE4FB8
:102960006FE870E0808191810E94321B892BC1F455
:1029700081E0D816A9F46CE870E0CE0103960E94BD
:10298000521B8C0168E970E087ED94E00E943B1BCC
:10299000B80187ED94E00E943B1B22E0D22ED9CFF4
:1029A00069E970E0CE0103960E94521B0D2D11279C
:1029B00040E050E060E070E00E94D719000F111F66
:1029C000025D1A4FF80171836083D394F3E0FD1523
:1029D00008F0BFCFEE0CFF1CEE0CFF1C84E891E06A
:1029E000E80EF91EF70182819381FC01099581E0CF
:1029F00090E024960FB6F894DEBF0FBECDBFDF91F6
:102A0000CF911F910F91FF90EF90DF900895CF939A
:102A1000DF93C8EED4E06CE870E0CE010E94271B83
:102A20008091D604882321F0CE010E941B030BC0A5
:102A3000FE0101900020E9F73197E85EF440BF0104
:102A4000CE010E946E091092E804DF91CF910895A3
:102A50008091D604882341F46BE970E088EE94E01D
:102A60000E943B1B0E94071567EA70E088EE94E025
:102A70000E943B1B0E9407150895EF92FF920F934F
:102A80001F93CF93DF93CDB7DEB764970FB6F8945B
:102A9000DEBF0FBECDBF85B342E050E08E010F5FB9
:102AA0001F4FB80199270E946A1B66EB70E0CE01A8
:102AB0000A960E943B1BF80101900020E9F77F0174
:102AC0000894E108F108E01AF10A08C068EB70E028
:102AD000C8010E94271B0894E11CF11C8E01065FAF
:102AE0001F4FF8E0EF16F1048CF3BE016F5F7F4FCC
:102AF000C8010E94271BB80188EE94E00E943B1B8E
:102B00000E94071564960FB6F894DEBF0FBECDBFC6
:102B1000DF91CF911F910F91FF90EF9008956AEB95
:102B200070E088EE94E00E943B1B0E940715089518
:102B300061EE70E088EE94E00E943B1B0E94071556
:102B400008950F931F93CF93DF93CDB7DEB72697EA
:102B50000FB6F894DEBF0FBECDBF80912E059091C9
:102B60002F05059730F480912E0590912F05892B24
:102B700019F40E94981516C080912E0590912F058A
:102B80008D5F0E9419144AE050E08E010F5F1F4FC5
:102B9000B8010E946A1BB80188EE94E00E943B1BBA
:102BA0000E94071526960FB6F894DEBF0FBECDBF64
:102BB000DF91CF911F910F91089580912E059091F3
:102BC0002F05059730F480912E0590912F05892BC4
:102BD00019F40E949815089529B380912E059091BB
:102BE0002F053327019702C0359527958A95E2F77F
:102BF00020FF03C06EEE70E002C068EB70E088EE6C
:102C000094E00E943B1B0E940715089560EF70E05E
:102C100088EE94E00E943B1B0E9407150895809166
:102C20002E0590912F05019711F460E007C0809167
:102C30002E0590912F05029779F461E080E00E94C3
:102C40009D13A7EDB4E0FD0101900020E9F7319755
:102C5000EA1BFB0B719718F00E9498150895CD019F
:102C60000E94BA130E940616089580912E05909135
:102C70002F05019711F460E007C080912E05909117
:102C80002F05029749F461E080E00E949D1384EFD4
:102C900090E00E94BA1302C00E9499130E94061687
:102CA00008958CE00E94DE130E9499130E9406167C
:102CB000089580912E0590912F05892BB1F1809177
:102CC0002E0590912F05099780F580913005909100
:102CD0003105029750F58091300590913105892B8F
:102CE00089F445B320912E0530912F0521503040B5
:102CF00081E090E002C0880F991F2A95E2F7809545
:102D000048230FC045B320912E0530912F05215047
:102D1000304081E090E002C0880F991F2A95E2F7C9
:102D2000482B45BB0E94061608950E9498150895E9
:102D3000CF92DF92EF92FF920F931F93CF93DF9387
:102D4000CDB7DEB724970FB6F894DEBF0FBECDBF68
:102D5000F8EEEF2EF4E0FF2E68E970E0C7010E9464
:102D60003B1BACEFB3E00E94E71B802D4AE050E034
:102D70008E010F5F1F4FB80199270E946A1B43E025
:102D800050E0B801C7010E94421BE9E9CE2EE0E005
:102D9000DE2EB601C7010E94271BADEFB3E00E94F3
:102DA000E71B802D4AE050E0B80199270E946A1B7A
:102DB00043E050E0B801C7010E94421BB601C701C1
:102DC0000E94271BAEEFB3E00E94E71B802D4AE074
:102DD00050E0B80199270E946A1B43E050E0B80117
:102DE000C7010E94421BB601C7010E94271BAFEF1B
:102DF000B3E00E94E71B802D4AE050E0B80199271C
:102E00000E946A1B43E050E0B801C7010E94421BC8
:102E10000E94071524960FB6F894DEBF0FBECDBFF3
:102E2000DF91CF911F910F91FF90EF90DF90CF90A6
:102E30000895CF92DF92EF92FF920F931F93CF935B
:102E4000DF93CDB7DEB724970FB6F894DEBF0FBE81
:102E5000CDBFB8EEEB2EB4E0FB2E68E970E0C70101
:102E60000E943B1BAEEEB3E00E94E71B802D4AE0C0
:102E700050E08E010F5F1F4FB80199270E946A1B17
:102E800043E050E0B801C7010E94421BA5E0CA2EF2
:102E9000A1E0DA2EB601C7010E94271BAFEEB3E016
:102EA0000E94E71B802D4AE050E0B80199270E945C
:102EB0006A1B43E050E0B801C7010E94421BB60103
:102EC000C7010E94271BA0EFB3E00E94E71B802DE3
:102ED0004AE050E0B80199270E946A1B43E050E0A5
:102EE000B801C7010E94421BB601C7010E94271BFF
:102EF000A1EFB3E00E94E71B802D4AE050E0B8014B
:102F000099270E946A1B43E050E0B801C7010E9464
:102F1000421BB601C7010E94271BA2EFB3E00E942B
:102F2000E71B802D4AE050E0B80199270E946A1BF8
:102F300043E050E0B801C7010E94421BB601C7013F
:102F40000E94271BA3EFB3E00E94E71B802D4AE0FD
:102F500050E0B80199270E946A1B43E050E0B80195
:102F6000C7010E94421B0E94071524960FB6F894D1
:102F7000DEBF0FBECDBFDF91CF911F910F91FF90AC
:102F8000EF90DF90CF900895CF92DF92EF92FF9273
:102F90000F931F93CF93DF93CDB7DEB724970FB670
:102FA000F894DEBF0FBECDBF98EEE92E94E0F92E67
:102FB00068E970E0C7010E943B1BA4EFB3E00E94E8
:102FC000E71B802D4AE050E08E010F5F1F4FB801D4
:102FD00099270E946A1B43E050E0B801C7010E9494
:102FE000421B89E9C82E80E0D82EB601C7010E9495
:102FF000271BA5EFB3E00E94E71B802D4AE050E0BD
:10300000B80199270E946A1B43E050E0B801C7014C
:103010000E94421BB601C7010E94271BA6EFB3E026
:103020000E94E71B802D4AE050E0B80199270E94DA
:103030006A1B43E050E0B801C7010E94421BB60181
:10304000C7010E94271BA7EFB3E00E94E71B802D5A
:103050004AE050E0B80199270E946A1B43E050E023
:10306000B801C7010E94421B0E94071524960FB6A3
:10307000F894DEBF0FBECDBFDF91CF911F910F91AE
:10308000FF90EF90DF90CF900895CF92DF92EF9274
:10309000FF920F931F93CF93DF93CDB7DEB72497A3
:1030A0000FB6F894DEBF0FBECDBF38EEE32E34E08E
:1030B000F32E68E970E0C7010E943B1BA8EFB3E064
:1030C0000E94E71B802D4AE050E08E010F5F1F4FEA
:1030D000B80199270E946A1B43E050E0B801C7017C
:1030E0000E94421B29E9C22E20E0D22EB601C70160
:1030F0000E94271BA9EFB3E00E94E71B802D4AE046
:1031000050E0B80199270E946A1B43E050E0B801E3
:10311000C7010E94421BB601C7010E94271BAAEFEC
:10312000B3E00E94E71B802D4AE050E0B8019927E8
:103130000E946A1B43E050E0B801C7010E94421B95
:10314000B601C7010E94271BABEFB3E00E94E71B4B
:10315000802D4AE050E0B80199270E946A1B43E0A5
:1031600050E0B801C7010E94421B0E940715249637
:103170000FB6F894DEBF0FBECDBFDF91CF911F9188
:103180000F91FF90EF90DF90CF90089580912E05E2
:1031900090912F05892B11F180913405909135057F
:1031A000892BE1F080913005909131058F3F910599
:1031B000A9F080913205909133058F3F910571F010
:1031C00080913405909135058F3F910539F08091BC
:1031D0002E0590912F058F3F910519F40E949815A7
:1031E00008950E94061680912E0590912F05ACEF50
:1031F000B3E0082E0E94EF1B8091300590913105BD
:10320000ADEFB3E0082E0E94EF1B80913205909144
:103210003305AEEFB3E0082E0E94EF1B809134051A
:1032200090913505AFEFB3E0082E0E94EF1B089593
:103230008091300590913105892B19F40E949815E1
:1032400008950E94061680E0AEEEB3E0082E0E94BC
:10325000EF1B82E2AFEEB3E0082E0E94EF1B89EF76
:10326000A0EFB3E0082E0E94EF1B81E0A1EFB3E0D6
:10327000082E0E94EF1B80912E0590912F05A2EF42
:10328000B3E0082E0E94EF1B80913005909131052C
:10329000A3EFB3E0082E0E94EF1B089580912E0546
:1032A00090912F05892B11F180913405909135056E
:1032B000892BE1F080913005909131058F3F910588
:1032C000A9F080913205909133058F3F910571F0FF
:1032D00080913405909135058F3F910539F08091AB
:1032E0002E0590912F058F3F910519F40E94981596
:1032F00008950E94061680912E0590912F05A4EF47
:10330000B3E0082E0E94EF1B8091300590913105AB
:10331000A5EFB3E0082E0E94EF1B8091320590913B
:103320003305A6EFB3E0082E0E94EF1B8091340511
:1033300090913505A7EFB3E0082E0E94EF1B08958A
:1033400080912E0590912F05892B39F080913405BD
:10335000909135058F3F910519F40E9498150895B5
:103360000E94061680912E0590912F05A8EFB3E0DC
:10337000082E0E94EF1B8091300590913105A9EF36
:10338000B3E0082E0E94EF1B809132059091330527
:10339000AAEFB3E0082E0E94EF1B809134059091B4
:1033A0003505ABEFB3E0082E0E94EF1B08953F9266
:1033B0004F925F926F927F928F929F92AF92BF9245
:1033C000CF92DF92EF92FF920F931F93CF93DF93F1
:1033D0008C012B01EA016115710519F0FB01918344
:1033E0008083209749F0CE010297839728F060E010
:1033F00070E080E090E0F6C0F801E1908F018E2D42
:1034000099270E94D81B892BB9F7FDE2EF1631F4FA
:10341000F801E1908F0181E0382E07C0FBE2EF1642
:1034200019F4F801E1908F013324209719F0C0318D
:10343000D105C1F4F0E3EF1679F4F8018081883703
:1034400011F0883549F4F801E1800E5F1F4FF2E07A
:103450003F2AC0E1D0E006C0209721F480E3E816BF
:10346000E9F427C0C830D10531F1C930D10524F4C1
:10347000C230D10531F50CC0CA30D10589F0C03158
:10348000D105F9F4A12CB12CC12CB8E0DB2E26C05B
:10349000A12CB12CC12CA0E4DA2E20C0CAE0D0E0CF
:1034A000FCECAF2EFCECBF2EFCECCF2EFCE0DF2EB4
:1034B00015C0C8E0D0E0A12CB12CC12CE0E1DE2E7B
:1034C0000DC09E01442737FD4095542F60E070E009
:1034D00080E090E80E949B1B59016A0120E030E0E7
:1034E00040E050E060E03E01882477FC8094982C16
:1034F00070EDF72EFE0CE9E0EF1570F48E2D81547F
:103500008A3118F499ECF92E06C08E2D81568A3135
:1035100050F589EAF82EFE0C8F2D99278C179D0700
:1035200014F567FD1CC0A216B306C406D506B0F09C
:10353000CA01B901A40193010E94FE1B9B01AC01C9
:103540002F0D311D411D511D2130F0E03F07F0E0EE
:103550004F07F0E85F0710F461E001C06FEFF8017A
:10356000E1908F01C5CF4114510481F0662331F001
:1035700001501040F2011183008308C031FE1AC0CF
:1035800002501040F2011183008314C067FF12C083
:1035900030FE05C020E030E040E050E804C02FEFEE
:1035A0003FEF4FEF5FE782E290E090933705809323
:1035B000360516C030FE08C05095409530952195CF
:1035C0003F4F4F4F5F4F0CC057FF0AC082E290E061
:1035D00090933705809336052FEF3FEF4FEF5FE76E
:1035E000CA01B901DF91CF911F910F91FF90EF9028
:1035F000DF90CF90BF90AF909F908F907F906F9013
:103600005F904F903F900895FB01DC0102C0019054
:103610000D9241505040D8F70895DC0101C06D93E0
:1036200041505040E0F70895FB01DC018D91813459
:103630001CF08B350CF4805E619161341CF06B35AD
:103640000CF4605E861B611189F3990B0895FB01F0
:10365000DC010D900020E9F7119701900D920020F8
:10366000E1F70895FB01DC018D91019080190110B3
:10367000D9F3990B0895FB01DC0101900D92002014
:10368000E1F70895FB01DC010D900020E9F71197A7
:103690004150504028F0019000200D92C9F7089544
:1036A0001C920895FC01A081B181AD01109681F0BA
:1036B0003D91FB01019003160110E1F7C9F70020CD
:1036C00011F4D00102C01E921196FC01A083B183B7
:1036D000CA010895FB019F01E8944230C4F04532CD
:1036E000B4F44A3029F497FB1EF4909581959F4FCE
:1036F000642F77270E941D1C805D8A330CF0895D42
:103700008193CB010097A1F716F45DE251931082EB
:10371000C9010C948B1BDC01FC01672F719177238D
:10372000E1F7329704C07C916D9370836291AE177C
:10373000BF07C8F30895A1E21A2EAA1BBB1BFD0107
:103740000DC0AA1FBB1FEE1FFF1FA217B307E40780
:10375000F50720F0A21BB30BE40BF50B661F771FD8
:10376000881F991F1A9469F76095709580959095B8
:103770009B01AC01BD01CF01089597FB092E0526E1
:103780000ED057FD04D0D7DF0AD0001C38F4509576
:103790004095309521953F4F4F4F5F4F0895F6F775
:1037A00090958095709561957F4F8F4F9F4F0895AD
:1037B000911121C0803251F08A3041F08C3031F0CB
:1037C0008D3021F0893011F08B3099F70895E1990F
:1037D000FECFBFBBAEBBE09A11960DB20895E19942
:1037E000FECFBFBBAEBB0DBA11960FB6F894E29AEE
:1037F000E19A0FBE0895992788270895629FD00106
:10380000739FF001829FE00DF11D649FE00DF11D9B
:10381000929FF00D839FF00D749FF00D659FF00D4A
:103820009927729FB00DE11DF91F639FB00DE11D37
:10383000F91FBD01CF0111240895AA1BBB1B51E143
:1038400007C0AA1FBB1FA617B70710F0A61BB70B10
:10385000881F991F5A95A9F780959095BC01CD01B5
:103860000895FFCF0D0A004E414B20434F4D4D416F
:103870004E440D0A006449024902FFFFFFFFFFFFAB
:103880004E414B20434F4D4D414E440D0A00200008
:103890000D0A0057524954454C434400002E004E37
:1038A000414B20434F4D4D414E44005265616420D1
:1038B000446174617368656574005300300075433A
:1038C0003A2041544D65676133320D0A5665723AAC
:1038D00020312E30330D0A4E49433A20454E4332B3
:1038E000384A3630004E414B20415247554D454EE7
:1038F0005400310041434B00202020202020202074
:103900002020202020202020003A005245534554FA
:1039100000474554504F525400534554504F525451
:10392000004745544144430056455253494F4E00C9
:103930005345544950004745544950005345544D50
:103940004143004745544D414300534554475700B8
:103950004745544757005345544D41534B00474545
:10396000544D41534B00494E49544C434400434C41
:103970004541524C434400474554535441545553D8
:10398000003F0048454C5000070140140D01DD1573
:10399000150159161D01A11524018F152C01C618FA
:1039A00032019816380118193F01191746014E19AE
:1039B0004C01C4175201A0195A0145186201511651
:1039C0006A0135168F000F1673013D157D0128150C
:1039D0007F01281500000000FFFFFFFFFFFFFFFF32
:1039E000FFFFFFFFFFFFFFFFFFFFFFFFFFFFFFFFE7
:1039F000FFFFFFFFFFFFFFFFFFFFFFFFFFFFFFFFD7
:103A0000FFFFFFFFFFFFFFFFFFFFFFFFFFFFFFFFC6
:103A1000FFFFFFFFFFFFFFFFFFFFFFFFFFFFFFFFB6
:107800000C942A3C0C94473C0C94473C0C94473C09
:107810000C94473C0C94473C0C94473C0C94473CDC
:107820000C94473C0C94473C0C94473C0C94473CCC
:107830000C94473C0C94473C0C94473C0C94473CBC
:107840000C94473C0C94473C0C94473C0C94473CAC
:107850000C94473C11241FBECFE5D8E0DEBFCDBF5E
:1078600010E0A0E6B0E0E0E9FBE702C005900D9271
:10787000A036B107D9F710E0A0E6B0E001C01D9234
:10788000A036B107E1F70E94493C0C94C73D0C9427
:10789000003CFF920F931F93CF93DF93C19A0E94F6
:1078A0009D3DB19930C107B600FCFDCF99E084EC55
:1078B000E1E0F0E0082E90935700E895FF240E9445
:1078C000933D982F863631F48DE00E94983D71E00B
:1078D000F72EF5CF8F3449F5AEEEB3E00E94B33DFD
:1078E000802D0E94983DAFEEB3E00E94B33D802D05
:1078F0000E94983DA0EFB3E00E94B33D802D0E940E
:10790000983DA1EFB3E00E94B33D802D0E94983DC9
:10791000A2EFB3E00E94B33D802D0E94983DA3EFFB
:10792000B3E00E94B33D802DEBC08D3459F50E9429
:10793000933DAEEEB3E0082E0E94BB3D0E94933D06
:10794000AFEEB3E0082E0E94BB3D0E94933DA0EF36
:10795000B3E0082E0E94BB3D0E94933DA1EFB3E02F
:10796000082E0E94BB3D0E94933DA2EFB3E0082E7B
:107970000E94BB3D0E94933DA3EFB3E0082E0E94FE
:10798000BB3D9DCF853689F400E010E083E007B66B
:1079900000FCFDCFF80180935700E89500581F4F79
:1079A00098E70030190798F363C0813611F489E530
:1079B000A7C0813421F0853511F0873791F40E94FA
:1079C000933D6F2D0E94A23D082F0E94933D6F2D85
:1079D0000E94A23D1127102F00279927082B192B51
:1079E00047C08D36A1F48CE30030180720F08FE3F8
:1079F0000E94983D3DC007B600FCFDCF25E0C801C0
:107A0000880F991FFC0120935700E89531C08334FB
:107A1000D1F40E94933D6F2D0E94A23D9927982F8B
:107A20008827C82BD92B07B600FCFDCF21E0C80161
:107A3000880F991F0E01FC0120935700E89511242F
:107A40000F5F1F4F15C0833641F40E94933D6F2D89
:107A50000E94A23DC82FDD270BC0803549F08C3431
:107A600039F08857823010F0943521F40E94933D0C
:107A70008DE046C0903711F483E542C0943729F475
:107A80008FE70E94983D80E03BC0953471F407B6C3
:107A900000FCFDCF81E180935700E8958DE00E94C6
:107AA000983DE0E0F0E009950ACF933741F482E099
:107AB0000E94983D85E90E94983D8EE121C096354F
:107AC00029F481E30E94983D80E31AC09335A1F424
:107AD0008EE40E94983D85E40E94983D84E50E94D2
:107AE000983D8DE20E94983D89E40E94983D8FE286
:107AF0000E94983D8FE404C09B3109F4E0CE8FE3EF
:107B00000E94983DDCCE07B600FCFDCF81E180935A
:107B10005700E895E0E0F0E00995DF91CF911F91E3
:107B20000F91FF9008955F9BFECF8CB19927089528
:107B30008CB95E9BFECF5E9A089580E189B988E199
:107B40008AB90895982F662311F49927089582ED34
:107B50008927982F9295990F907E86958695869580
:107B6000892B99270895E199FECFBFBBAEBBE09A60
:107B700011960DB20895E199FECFBFBBAEBB0DBA11
:107B800011960FB6F894E29AE19A0FBE0895FFCFCE
:107B9000FFFFFFFFFFFFFFFFFFFFFFFFFFFFFFFFF5
:107BA000FFFFFFFFFFFFFFFFFFFFFFFFFFFFFFFFE5
:107BB000FFFFFFFFFFFFFFFFFFFFFFFFFFFFFFFFD5
:107BC000FFFFFFFFFFFFFFFFFFFFFFFFFFFFFFFFC5
:00000001FF
