:100000000C9454000C941E020C944B020C9471003E
:100010000C9471000C9471000C9471000C94B9054F
:100020000C94E6050C94F2040C948C050C943205A7
:100030000C945F050C94C5040C9471000C94710031
:100040000C9472040C9471000C9471000C94710067
:100050000C9471000C9471000C9471000C9471005C
:100060000C9471000C947100000001000800200045
:100070004000800000010004000001000800400072
:10008000000100040D0A0025303278200025642E7E
:1000900025303264002D0030313233343536373874
:1000A000394142434445460011241FBECFEFD8E0FA
:1000B000DEBFCDBF13E0A0E0B1E0EAE2FBE102C0A9
:1000C00005900D92A630B107D9F713E0A6E0B3E092
:1000D00001C01D92AB3AB107E1F70E94AA080C9447
:1000E000930D0C9400008091000190910101A0916A
:1000F0000201B09103018093060390930703A0933C
:100100000803B093090341E06AE070E08AE090E000
:100110000C94270180910A038F5F8C3019F0809333
:100120000A03089510920A03809100019091010141
:10013000A0910201B09103010196A11DB11D809310
:10014000000190930101A0930201B093030108956F
:10015000569A0895CF93DF932FEF829FC001112409
:1001600064E670E00E942209FB01EE0FFF1FEA5FC8
:10017000FE4FC081D181209731F40E94DD035E984B
:10018000DF91CF9108950E94D2038C2FDF91CF9100
:100190000C94E80308953A9A08958F929F92AF9233
:1001A000BF92CF92DF92EF92FF92429A682F70E057
:1001B00080E090E00E94A2094B015C0120E030E069
:1001C0004AEF54E40E94300A6B017C0120E030E0E9
:1001D00040E85FE30E94720987FD24C020E03FEF02
:1001E0004FE757E4C701B6010E942C0A1816ACF479
:1001F00020E030E040E251E4C501B4010E94300A41
:100200000E94760928EC30E06115710581F0C90182
:100210000197F1F761507109F7CFC701B6010E944C
:10022000760902C061E070E0CB010197F1F74298D6
:10023000FF90EF90DF90CF90BF90AF909F908F9006
:100240000895882311F0429A0895429808952F92B4
:100250003F924F925F926F927F928F929F92AF9256
:10026000BF92CF92DF92EF92FF920F931F93CF93A3
:10027000DF9300D000D0CDB7DEB7042F10E09C0193
:1002800040E050E029833A834B835C8388EC282E3E
:10029000312C6B01E12CF12C101709F480C0429A2B
:1002A00069817A818B819C810E94A2092B013C018A
:1002B00020E030E04AEF54E40E94300A4B015C0138
:1002C00020E030E040E85FE30E94720987FD22C031
:1002D00020E03FEF4FE757E4C501B4010E942C0A2C
:1002E00018169CF420E030E040E251E4C301B20172
:1002F0000E94300A0E9476096115710581F0C101E2
:100300000197F1F761507109F7CFC501B4010E945F
:10031000760902C061E070E0CB010197F1F74298E5
:10032000C701B6010E94A2092B013C0120E030E088
:100330004AEF54E40E94300A4B015C0120E030E0B7
:1003400040E85FE30E94720987FD22C020E03FEF92
:100350004FE757E4C501B4010E942C0A18169CF41B
:1003600020E030E040E251E4C301B2010E94300AD3
:100370000E9476096115710581F0C1010197F1F7BD
:1003800061507109F7CFC501B4010E94760902C01E
:1003900061E070E0CB010197F1F71F5F7DCF0F9017
:1003A0000F900F900F90DF91CF911F910F91FF90C1
:1003B000EF90DF90CF90BF90AF909F908F907F9005
:1003C0006F905F904F903F902F90089581110AC0D9
:1003D00085B78C7F85BF85B7682B65BFE89A529833
:1003E0005A9A0895813069F485B7837F85BF85B7B0
:1003F00094E0699FB0011124682B65BFE99A539876
:100400005B9A0895823040F4E82FF0E0EE0FFF1F72
:10041000E55FFC4F718360830895823040F4E82FDC
:10042000F0E0EE0FFF1FE55FFC4F11821082089590
:1004300080E00E940D0281E00C940D021F920F9249
:100440000FB60F9211242F933F934F935F936F93A7
:100450007F938F939F93AF93BF93EF93FF9380917D
:100460000B0390910C03892B29F0E0910B03F09181
:100470000C030995FF91EF91BF91AF919F918F91DF
:100480007F916F915F914F913F912F910F900FBE90
:100490000F901F9018951F920F920FB60F92112474
:1004A0002F933F934F935F936F937F938F939F937C
:1004B000AF93BF93EF93FF9380910D0390910E0341
:1004C000892B29F0E0910D03F0910E030995FF911E
:1004D000EF91BF91AF919F918F917F916F915F91BC
:1004E0004F913F912F910F900FBE0F901F90189535
:1004F000089595B5987F892B85BD089582E00E9467
:10050000790216BCEEE6F0E0808181608083109273
:100510001F031092200310922103109222030895CA
:10052000E1E8F0E09081987F892B8083089583E053
:100530000E9490021092850010928400EFE6F0E095
:100540008081816080830895CF93DF93EC0183E005
:100550000E9490021092850010928400E1E8F0E081
:10056000908198609083D0938900C0938800EFE6D3
:10057000F0E0808182608083DF91CF910895E1EB8C
:10058000F0E09081987F892B8083089584E00E9419
:10059000BF021092B200E0E7F0E0808181608083CA
:1005A00010922703109228031092290310922A0315
:1005B0000895E5B5E770F0E0EE0FFF1FE858FF4F34
:1005C000859194910895E0918100E770F0E0EE0F3D
:1005D000FF1FE858FF4F859194910895E091B10075
:1005E000E770F0E0EE0FFF1FE859FF4F85919491FF
:1005F0000895873040F4E82FF0E0EE0FFF1FE15F31
:10060000FC4F718360830895873040F4E82FF0E059
:10061000EE0FFF1FE15FFC4F118210820895CF9310
:10062000C0E08C2F0E940403CF5FC730D1F70E9437
:100630007E020E9497020E94C6027894CF9108958C
:10064000CF92DF92EF92FF920F931F93CF93DF939E
:10065000EC0116B510922303109224031092250387
:10066000109226030E94D9029C0140E050E060E015
:1006700072E18AE790E00E9436096E01E12CF12CCC
:10068000293B8DE8380786E048075105B0F4C131B1
:10069000D74298F4C701B6010E94FE0828EE33E065
:1006A00040E050E00E943609DA01C901810F911D36
:1006B000A11DB11D8C019D010FC0CA01B90128EE19
:1006C00033E040E050E00E943609C701B6010E94C5
:1006D000FE089B01AC01E8CF809123039091240395
:1006E000A0912503B091260366B5BA2FA92F982FA4
:1006F0008827862B80179107A207B30798F480916B
:10070000230390912403A0912503B091260383B77E
:10071000817F83BF83B7816083BF889583B78E7FD6
:1007200083BFDACFDF91CF911F910F91FF90EF90B0
:10073000DF90CF90089510921F0310922003109223
:10074000210310922203089560911F0370912003EA
:100750008091210390912203089510922703109213
:1007600028031092290310922A0308956091270309
:10077000709128038091290390912A030895569A35
:1007800084B5806884BD84B5826084BD84B5816091
:1007900084BD85B5826085BD85B5816085BD17BC8A
:1007A00018BC089584B5806884BD089584B58062BE
:1007B00084BD84B58F7E84BD089584B58F7784BD54
:1007C000089584B58F7D84BD84B58F7E84BD0895E2
:1007D00087BD089588BD0895893049F480918000CF
:1007E000826080938000809180008E7F0EC08A306E
:1007F00021F480918000826003C0809180008D7F11
:1008000080938000809180008160809380001092AE
:1008100089001092880010928B0010928A0008952F
:100820009C01E0E8F0E090819E7F9083908192604F
:100830009083E1E8F0E090819860908390819061EE
:100840009083309387002093860010928900109245
:10085000880010928B0010928A000895E0E8F0E082
:1008600080818068808380818F7B80830895E0E829
:10087000F0E080818062808380818F7E8083089514
:10088000E0E8F0E080818F77808380818F7B8083B8
:100890000895E0E8F0E080818F7D808380818F7E05
:1008A0008083089584B58D7F84BD84B58E7F84BD9B
:1008B0000E9440040C944904E0E8F0E080818D7FC0
:1008C000808380818E7F80830E9440040C94490441
:1008D0009093890080938800089590938B00809373
:1008E0008A0008951F920F920FB60F9211242F9332
:1008F0003F934F935F936F937F938F939F93AF93A8
:10090000BF93EF93FF9380911F0390912003A091D9
:100910002103B09122030196A11DB11D80931F03F5
:1009200090932003A0932103B0932203809123038B
:1009300090912403A0912503B09126030196A11D57
:10094000B11D8093230390932403A0932503B093B8
:10095000260380910F0390911003892B29F0E091D9
:100960000F03F09110030995FF91EF91BF91AF91A3
:100970009F918F917F916F915F914F913F912F91B7
:100980000F900FBE0F901F9018951F920F920FB6E9
:100990000F9211242F933F934F935F936F937F9305
:1009A0008F939F93AF93BF93EF93FF938091110326
:1009B00090911203892B29F0E0911103F091120319
:1009C0000995FF91EF91BF91AF919F918F917F9189
:1009D0006F915F914F913F912F910F900FBE0F90AC
:1009E0001F9018951F920F920FB60F9211242F93FC
:1009F0003F934F935F936F937F938F939F93AF93A7
:100A0000BF93EF93FF938091270390912803A091C8
:100A10002903B0912A030196A11DB11D80932703DC
:100A200090932803A0932903B0932A03809119037C
:100A300090911A03892B29F0E0911903F0911A0380
:100A40000995FF91EF91BF91AF919F918F917F9108
:100A50006F915F914F913F912F910F900FBE0F902B
:100A60001F9018951F920F920FB60F9211242F937B
:100A70003F934F935F936F937F938F939F93AF9326
:100A8000BF93EF93FF938091130390911403892BED
:100A900029F0E0911303F09114030995FF91EF9170
:100AA000BF91AF919F918F917F916F915F914F9186
:100AB0003F912F910F900FBE0F901F9018951F928E
:100AC0000F920FB60F9211242F933F934F935F9382
:100AD0006F937F938F939F93AF93BF93EF93FF9306
:100AE0008091150390911603892B29F0E09115034D
:100AF000F09116030995FF91EF91BF91AF919F91EE
:100B00008F917F916F915F914F913F912F910F90B6
:100B10000FBE0F901F9018951F920F920FB60F9255
:100B200011242F933F934F935F936F937F938F93F2
:100B30009F93AF93BF93EF93FF938091170390918F
:100B40001803892B29F0E0911703F09118030995F8
:100B5000FF91EF91BF91AF919F918F917F916F9195
:100B60005F914F913F912F910F900FBE0F901F906B
:100B700018951F920F920FB60F9211242F933F9347
:100B80004F935F936F937F938F939F93AF93BF9395
:100B9000EF93FF9380911B0390911C03892B29F005
:100BA000E0911B03F0911C030995FF91EF91BF9118
:100BB000AF919F918F917F916F915F914F913F91F5
:100BC0002F910F900FBE0F901F9018951F920F92AC
:100BD0000FB60F9211242F933F934F935F936F9310
:100BE0007F938F939F93AF93BF93EF93FF938091E6
:100BF0001B0390911C03892B29F0E0911B03F091BA
:100C00001C030995FF91EF91BF91AF919F918F9137
:100C10007F916F915F914F913F912F910F900FBEF8
:100C20000F901F901895589AE1ECF0E02081286011
:100C30002083A2ECB0E02C912E602C9320812061C7
:100C400020839093C5008093C400089583E390E0CF
:100C50000C9413069091C00095FFFCCF8093C600C2
:100C60000895CF93DF93EC018991882319F00E94B6
:100C70002A06FACFDF91CF910895CF93DF93EC014D
:100C8000FE018491882321F00E942A062196F8CF44
:100C9000DF91CF910895EBE2F3E001900020E9F7B6
:100CA00031979F012B523340FC013327B901655D19
:100CB0007C4F94914E2F481B50E0992331F0DB017B
:100CC000A40FB51F9C933196F4CF255D3C4FF901DD
:100CD000E40FF51F10820895CF93DF93EC0197FF87
:100CE00007C085E990E00E943D06D195C195D109E4
:100CF000CE0164E670E00E9422099F938F937F9358
:100D00006F938DE890E09F938F938BE293E09F9396
:100D10008F930E94BB0A8DB79EB708960FB6F894C2
:100D20009EBF0FBE8DBF8BE293E0DF91CF910C94FD
:100D30003106AF92BF92DF92EF92FF920F931F9313
:100D4000CF93DF931F92CDB7DEB7D82E5C0107E8B3
:100D500010E08BE2E82E83E0F82E8A2D8D1986179D
:100D6000C0F4F50181915F011F928F931F930F9340
:100D7000FF92EF9269830E94BB0A8BE293E00E948C
:100D800031060F900F900F900F900F900F90698188
:100D9000E4CF84E890E00F90DF91CF911F910F9105
:100DA000FF90EF90DF90BF90AF900C943D06909332
:100DB0001E0380931D030895CF93C82F8A3031F40A
:100DC000E0911D03F0911E038DE00995E0911D0354
:100DD000F0911E038C2FCF910994CF93DF9300974E
:100DE00039F0EC018991882319F00E94DC06FACFD2
:100DF000DF91CF910895EF92FF920F931F93CF93BE
:100E0000DF93EC017A010097E9F0680F791FC617AC
:100E1000D70719F400E010E00FC02196FE013197CA
:100E200080818111F4CFF6CF8881882349F0219603
:100E30000E94DC060F5F1F4F0E151F05A9F702C0A9
:100E400080E2F6CFDF91CF911F910F91FF90EF904D
:100E50000895CF93DF93009751F0FC018491EF0147
:100E60002196882321F00E94DC06FE01F7CFDF9156
:100E7000CF9108958AE00C94DC068F70E82FF0E0A3
:100E8000E956FF4F84910C94DC06CF93C82F8295CE
:100E90008F700E943D078C2FCF910C943D07CF930C
:100EA000C82F892F0E9445078C2FCF910C9445079E
:100EB000CF92DF92EF92FF926B017C01C7010E94FB
:100EC0004F07C601FF90EF90DF90CF900C944F0733
:100ED0003F924F925F926F927F928F929F92AF92CA
:100EE000BF92CF92DF92EF92FF920F931F93CF9317
:100EF000DF93CDB7DEB7A0970FB6F894DEBF0FBE75
:100F0000CDBF482EC62E822E442351F017FF08C0B5
:100F100066277727CB016E197F09800B910B02C0E2
:100F2000C801B70199249394411101C0912CDD248B
:100F3000DA94DC0CD91818A2552447FC5094652C7F
:100F4000752CA30192010E943609FB01EF70FF2767
:100F5000E956FF4F64916F8FB901CA015E012EE11E
:100F6000A20EB11C3D2C3A942FEF3216D1F0611530
:100F700071058105910579F0A30192010E9436095E
:100F8000FB01EF70FF27E956FF4F6491F501608385
:100F9000B901CA0102C0F5018082F1E0AF1AB108BF
:100FA000E2CFCE014F968D199109992069F0FC018D
:100FB000319717FF02C02DE205C0EF28E02AE12A91
:100FC00039F02BE22083CF017C011C2D180F02C0C9
:100FD00020E2F8CF1E1531F0F70181917F010E94C8
:100FE000DC06F8CFA0960FB6F894DEBF0FBECDBFDB
:100FF000DF91CF911F910F91FF90EF90DF90CF90F5
:10100000BF90AF909F908F907F906F905F904F9028
:101010003F9008955F926F927F928F929F92AF92CE
:10102000BF92CF92DF92EF92FF920F931F93CF93D5
:10103000DF931F92CDB7DEB7EC89FD893E0126E133
:10104000620E711C3AE0A32EB12C3B89332381F050
:101050008F010F5F1F4F8491853289F0882309F437
:1010600066C00E94DC06630178013601F701EDCF0E
:101070008081853259F08F010F5F1F4FEFCF7F01C5
:1010800082E0E80EF11CF801849105C07F0122E0A6
:10109000E20EF11C81818436A1F0883761F083363D
:1010A00031F4F301808193012E5F3F4F39010E949B
:1010B000DC066301DACF20E1822E912C00E010E102
:1010C00005C09AE0892E912C00E117E2630132E01D
:1010D000C30ED11CF301608071808436A1F477FEC9
:1010E0000FC07194619471088DE20E94DC0608C003
:1010F000C801B5010E940E098B016230710518F01C
:1011000060167106A8F3C301B8010E940E09582E9B
:10111000862F99830E943D07652C9981792EC801FD
:10112000B4010E940E098B01672B69F79ECF80E006
:1011300090E00F90DF91CF911F910F91FF90EF9072
:10114000DF90CF90BF90AF909F908F907F906F90E7
:101150005F9008950E94CB0042E06CE271E08CE267
:1011600091E00E9427010E94A8000E94180261E0FD
:1011700080E00E94E60161E081E00E94E60163E711
:1011800070E080E00E94020263E770E081E00E946C
:1011900002020E94BF030E94D2030E94970282E0D3
:1011A0000E94900280E197E20E94A4026AE870E047
:1011B00082E00E94F9027894209104018091060354
:1011C00090910703A0910803B0910903820F911D2C
:1011D000A11DB11D409100015091010160910201DA
:1011E0007091030184179507A607B70718F080913F
:1011F000050101C080E00E94AA00DECFDB018F93D1
:101200009F930E945809BF91AF91A29F800D911D9D
:10121000A39F900DB29F900D11240895AA1BBB1B94
:1012200051E107C0AA1FBB1FA617B70710F0A61BE6
:10123000B70B881F991F5A95A9F780959095BC0107
:10124000CD01089597FB072E16F4009407D077FD83
:1012500009D00E940E0907FC05D03EF490958195B7
:101260009F4F0895709561957F4F0895A1E21A2EC2
:10127000AA1BBB1BFD010DC0AA1FBB1FEE1FFF1F3A
:10128000A217B307E407F50720F0A21BB30BE40B8A
:10129000F50B661F771F881F991F1A9469F76095D1
:1012A0007095809590959B01AC01BD01CF0108958B
:1012B0000E946309A59F900DB49F900DA49F800D7F
:1012C000911D11240895A29FB001B39FC001A39F57
:1012D000700D811D1124911DB29F700D811D11246F
:1012E000911D08956CD008F481E0089594D088F0A1
:1012F0009F5790F0B92F9927B751A0F0D1F0660F02
:10130000771F881F991F1AF0BA95C9F712C0B1301C
:1013100081F09BD0B1E0089598C0672F782F88277F
:10132000B85F39F0B93FCCF3869577956795B3955B
:10133000D9F73EF490958095709561957F4F8F4FCA
:101340009F4F0895E89409C097FB3EF490958095CF
:10135000709561957F4F8F4F9F4F9923A9F0F92F7B
:1013600096E9BB279395F695879577956795B795F9
:10137000F111F8CFFAF4BB0F11F460FF1BC06F5FDF
:101380007F4F8F4F9F4F16C0882311F096E911C0F1
:10139000772321F09EE8872F762F05C0662371F012
:1013A00096E8862F70E060E02AF09A95660F771F26
:1013B000881FDAF7880F9695879597F90895990F02
:1013C0000008550FAA0BE0E8FEEF16161706E8070F
:1013D000F907C0F012161306E407F50798F0621B30
:1013E000730B840B950B39F40A2661F0232B242B05
:1013F000252B21F408950A2609F4A140A6958FEF24
:10140000811D811D089557FD9058440F551F59F0B7
:101410005F3F71F04795880F97FB991F61F09F3FE1
:1014200079F087950895121613061406551FF2CF0A
:101430004695F1DF08C0161617061806991FF1CF5A
:1014400086957105610508940895E894BB27662781
:101450007727CB0197F90895B2DF08F48FEF08954D
:101460000BD078C069D028F06ED018F0952309F021
:101470005AC05FC01124EACFC6DFA0F3959FD1F315
:10148000950F50E0551F629FF001729FBB27F00D32
:10149000B11D639FAA27F00DB11DAA1F649F662787
:1014A000B00DA11D661F829F2227B00DA11D621FD6
:1014B000739FB00DA11D621F839FA00D611D221F90
:1014C000749F3327A00D611D231F849F600D211D74
:1014D000822F762F6A2F11249F5750408AF0E1F017
:1014E00088234AF0EE0FFF1FBB1F661F771F881F60
:1014F00091505040A9F79E3F510570F014C0A6CFFF
:101500005F3FECF3983EDCF3869577956795B7954A
:10151000F795E7959F5FC1F7FE2B880F911D969574
:10152000879597F9089597F99F6780E870E060E0E4
:1015300008959FEF80EC089500240A94161617066C
:1015400018060906089500240A94121613061406B4
:1015500005060895092E0394000C11F4882352F017
:10156000BB0F40F4BF2B11F460FF04C06F5F7F4FCF
:101570008F4F9F4F0895AEE0B0E0E1ECFAE00C949D
:101580006A0D0D891E898EE08C831A8309838FEF83
:101590009FE79E838D83AE01475E5F4F6F89788D95
:1015A000CE0101960E94DE0A2F813885F801E20FF4
:1015B000F31F10822E96E4E00C94860DACE0B0E0B0
:1015C000E4EEFAE00C945C0D7C016B018A01FC01F5
:1015D00017821682838181FFBDC1CE0101964C0125
:1015E000F7019381F60193FD859193FF81916F013E
:1015F000882309F4ABC1853239F493FD859193FFBB
:1016000081916F01853229F4B70190E00E94C60CE8
:10161000E7CF512C312C20E02032A0F48B3269F03E
:1016200030F4803259F0833269F420612CC08D325D
:1016300039F0803339F4216026C02260246023C051
:10164000286021C027FD27C030ED380F3A3078F4EC
:1016500026FF06C0FAE05F9E300D1124532E13C002
:101660008AE0389E300D1124332E20620CC08E3259
:1016700021F426FD6BC1206406C08C3611F420686D
:1016800002C0883641F4F60193FD859193FF819164
:101690006F018111C1CF982F9F7D9554933028F40D
:1016A0000C5F1F4FFFE3F9830DC0833631F08337A2
:1016B00071F0833509F05BC022C0F8018081898315
:1016C0000E5F1F4F44244394512C540115C0380120
:1016D000F2E06F0E711CF801A080B18026FF03C0FC
:1016E000652D70E002C06FEF7FEFC5012C870E946F
:1016F000BB0C2C0183012C852F77222E17C03801BB
:10170000F2E06F0E711CF801A080B18026FF03C0CB
:10171000652D70E002C06FEF7FEFC5012C870E943E
:10172000B00C2C012C852068222E830123FC1BC0C9
:10173000832D90E048165906B0F4B70180E290E09E
:101740000E94C60C3A94F4CFF50127FC859127FE40
:1017500081915F01B70190E00E94C60C31103A946C
:10176000F1E04F1A51084114510471F7E5C0843675
:1017700011F0893639F5F80127FF07C060817181C2
:10178000828193810C5F1F4F08C06081718188271F
:1017900077FD8095982F0E5F1F4F2F76722E97FF43
:1017A00009C090958095709561957F4F8F4F9F4FA1
:1017B0002068722E2AE030E0A4010E94FE0CA82EC0
:1017C000A81844C0853729F42F7EB22E2AE030E0D5
:1017D00025C0F22FF97FBF2E8F36C1F018F488355F
:1017E00079F0B4C0803719F0883721F0AFC02F2FBF
:1017F0002061B22EB4FE0DC08B2D8460B82E09C0BE
:1018000024FF0AC09F2F9660B92E06C028E030E062
:1018100005C020E130E002C020E132E0F801B7FE6F
:1018200007C060817181828193810C5F1F4F06C068
:101830006081718180E090E00E5F1F4FA4010E94E3
:10184000FE0CA82EA818FB2DFF777F2E76FE0BC06E
:10185000372D3E7FA51450F474FE0AC072FC08C0F8
:10186000372D3E7E05C0BA2C372D03C0BA2C01C0DF
:10187000B52C34FF0DC0FE01EA0DF11D80818033CF
:1018800011F4397E09C032FF06C0B394B39404C08A
:10189000832F867809F0B39433FD13C030FF06C060
:1018A0005A2CB31418F4530C5B18B32CB31468F40B
:1018B000B70180E290E03C870E94C60CB3943C855F
:1018C000F5CFB31410F43B1801C0312C34FF12C013
:1018D000B70180E390E03C870E94C60C3C8532FF54
:1018E00017C031FD03C088E790E002C088E590E0B2
:1018F000B7010CC0832F867859F031FF02C08BE20C
:1019000001C080E237FD8DE2B70190E00E94C60C75
:10191000A51438F4B70180E390E00E94C60C5A94F5
:10192000F7CFAA94F401EA0DF11D8081B70190E090
:101930000E94C60CA110F5CF332009F451CEB70197
:1019400080E290E00E94C60C3A94F6CFF7018681BF
:10195000978102C08FEF9FEF2C96E2E10C94780DF7
:10196000FC010590615070400110D8F7809590956A
:101970008E0F9F1F0895FC0161507040019001106F
:10198000D8F7809590958E0F9F1F08950F931F9302
:10199000CF93DF93FB01238121FD03C08FEF9FEFE6
:1019A00028C022FF16C04681578124813581421705
:1019B000530744F4A081B1819D012F5F3F4F3183D4
:1019C00020838C93268137812F5F3F4F3783268377
:1019D00010C0EB01092F182F0084F185E02D099527
:1019E000892BE1F68E819F8101969F838E83812FC3
:1019F000902FDF91CF911F910F910895FA01AA279F
:101A0000283051F1203181F1E8946F936E7F6E5F41
:101A10007F4F8F4F9F4FAF4FB1E03ED0B4E03CD0EF
:101A2000670F781F891F9A1FA11D680F791F8A1FD2
:101A3000911DA11D6A0F711D811D911DA11D20D039
:101A400009F468943F912AE0269F11243019305DF3
:101A50003193DEF6CF010895462F4770405D4193E4
:101A6000B3E00FD0C9F7F6CF462F4F70405D4A3331
:101A700018F0495D31FD4052419302D0A9F7EACFF9
:101A8000B4E0A6959795879577956795BA95C9F728
:101A900000976105710508959B01AC010A2E06941B
:101AA0005795479537952795BA95C9F7620F731FD4
:101AB000841F951FA01D08952F923F924F925F9211
:101AC0006F927F928F929F92AF92BF92CF92DF924E
:101AD000EF92FF920F931F93CF93DF93CDB7DEB7B3
:101AE000CA1BDB0B0FB6F894DEBF0FBECDBF099447
:101AF0002A88398848885F846E847D848C849B849E
:101B0000AA84B984C884DF80EE80FD800C811B81AB
:101B1000AA81B981CE0FD11D0FB6F894DEBF0FBEDA
:0A1B2000CDBFED010895F894FFCF4A
:101B2A0058020000054B00000100010001000200FC
:101B3A000200020002000300030003000400040084
:101B4A000400040005000500050005000600060063
:101B5A000600070007000700070008000800080041
:101B6A0009000900090009000A000A000A000B001E
:101B7A000B000B000B000C000C000C000D000D00FC
:101B8A000D000E000E000E000E000F000F000F00D9
:101B9A0010001000100011001100110012001200B4
:101BAA00120013001300130014001400140015008F
:101BBA00150015001600160016001700170017006A
:101BCA001800180018001900190019001A001A0044
:101BDA001B001B001B001C001C001C001D001D001C
:101BEA001E001E001E001F001F00200020002000F3
:101BFA0021002100220022002200230023002400C9
:101C0A00240025002500260026002600270027009C
:101C1A0028002800290029002A002A002B002B006E
:101C2A002C002C002D002E002E002F002F0030003B
:101C3A003000310031003200330033003400340008
:101C4A0035003600360037003800380039003A00CF
:101C5A003A003B003C003C003D003E003F003F0094
:101C6A004000410042004300430044004500460052
:101C7A0047004800490049004A004B004C004D000B
:101C8A004E004F00500051005200530054005500BE
:101C9A005700580059005A005B005C005E005F0064
:101CAA006000610063006400650067006800690005
:101CBA006B006C006E006F00710072007400760099
:101CCA00770079007B007C007E008000820084001F
:101CDA008600870089008B008D0090009200940096
:101CEA00960098009B009D009F00A200A400A700F8
:101CFA00A900AC00AE00B100B400B700B900BC0046
:101D0A00BF00C200C500C800CC00CF00D200D60078
:101D1A00D900DD00E000E400E700EB00EF00F3008B
:061D2A00F700FB00FF00C2
:00000001FF
